:100000000C946C1A0C949D1A0C949D1A0C949D1AC5
:100010000C949D1A0C949D1A0C949D1A0C949D1A84
:100020000C949D1A0C949D1A0C949D1A0C949D1A74
:100030000C949D1A0C949D1A0C949D1A0C949D1A64
:100040000C949D1A0C94EC850C949D1A0C949D1A9A
:100050000C949D1A0C949D1A0C94AAAE0D94011147
:100060000C949D1A0C94A0390C9496390C949D1AFA
:100070000C949D1A0C949D1A0C949D1A0C949D1A24
:100080000C942C330C949D1A0C949D1A0C949D1A6C
:100090000C949D1A0C949D1A0C949D1A0C949D1A04
:1000A0000C949D1A0C949D1A0C94FE320C949D1A7B
:1000B0000C949D1A0C949D1A0C949D1A0C94D03299
:1000C0000C949D1A0C949D1A0C949D1A0C949D1AD4
:1000D0000C949D1A0C949D1A0C949D1A0C949D1AC4
:1000E0000C949D1AAABD8DBD90BDADBD93BD96BDAE
:1000F00099BDA5BD9CBDB8BD9FBDA2BDA8C9DAC9AB
:10010000DCC9EBC9F0C9A6C9FBC9ED00E5012702AE
:10011000F901F501CD0145015D02BB016101F70166
:100120002701FF001702CD01AD012902250141027F
:1001300019010D021B0247029D01A901D901DB0033
:100140000F0141015B02B10187019D0103025702CA
:10015000D300084AD73B3BCE016E84BCBFFDC12F04
:100160003D6C74319ABD56833DDA3D00C77F11BEA8
:10017000D9E4BB4C3E916BAAAABE000000803F05AB
:10018000A84CCDB2D44EB93836A9020C50B99186DC
:1001900088083CA6AAAA2ABE000000803F000C9452
:1001A00044590C94DFD50D94A8100C94F1C30C9411
:1001B000A6C90C9474BB0D9453100C9453BF0D94AA
:1001C000EF180C9442A90C94F1430C94D0D70C94E2
:1001D0001B3A0C9415440C944CAC0D94FE0E0C94EC
:1001E000F7430C94B9D50C9429C90C9472AE0C94B5
:1001F000F03C0C94B8BD0C9460BB0C94A5570D94C6
:10020000210F0C9412DA0C9428C40C94A8C90C94F5
:10021000774F0D9484040C948DBD0C94754F0D9400
:100220005D100C9468BB0D9482040C9493BD0C94E7
:1002300034590D9420100C9496BD0D947C040C94AC
:10024000C1AD0C94A4510C949FBD0D94330F0D942B
:100250001D0F0C941A3B0C941DC80C94B6E00C9422
:100260000F440C944EAC0C94FD430D9429240C9433
:10027000B9400C94FBC90C94E5430C94B5C50C949F
:100280006BA90D9467100C94123F0D94050F0C94FC
:100290001DC40C94C73E0C940FD90C9463A90C9404
:1002A00036D80C94D03A0C94FFC80C9478BB0C94BC
:1002B00081AA0C9426730C94EBC90C940C460C94F4
:1002C000A5BD0D94130F0D9480040C9469570C94E4
:1002D000474F0C943F590C9480BB0C94023A0C94F9
:1002E000DF430C94E33A0C9444B70C940E3B0D940A
:1002F00001190C9421D60C9459450C942AC40C94E1
:10030000663A0C94BCDB0C9448AC0C94BAA80D94DF
:100310008A100C94AFD50C94B13D0C94853E0C948E
:1003200064BB0C9471400C9418570C94AABD0C94A7
:100330007CBB0C9470BB0C9490C90D94B2100C94BF
:100340002ED80C94AE540C9487BB0C94BE3A0C94EB
:100350001B440D9443100C949CBD0D942B0F0C94D6
:10036000E5D50D9480100C94D9A80C9409440C94F4
:100370005C450C94B4D50D940F0F0D947E040C9431
:1003800042510C9417BE0C94FF3A0C94F8BF0C9495
:1003900090B90C945CBB0C9450AC0D94380F0C9439
:1003A0003E510C94ADBD0C94E5560C94D63E0C9485
:1003B000BA4F0D944B100D9443240C94343A0C9482
:1003C0006CBB0C949BA80D9448060D94010F0C94E3
:1003D00034BF0C948ABB0C944AAC0C94DAC90C94CC
:1003E0004BC90C94A2BD0C94AC5A0D94FA0E0D940A
:1003F000170F0D94F40E0C94F0C90C9484570C94C0
:10040000AE3C0C9425B80D9494100C9458450C9463
:1004100086C00C94E7390C94AAD50D9425100C9441
:10042000DAD70C94023B0C943BC70C9414C40D9483
:10043000250F0C949DE00D942F100C944D3A0C94C4
:100440005E4F0C94D3D50C949F570C94FC3A0D94AA
:10045000F00E0D942F0F0C9424C30C9439AC0C9413
:10046000D9D50C9426C40C9484BB0C9415590C94C7
:100470000BBE0C9490BD0C9430C40C94D5D70C9446
:10048000923A0D941B100C94587A0C947F3A0D9468
:1004900039100C94CBD70C94DCC90C9448500C94B4
:1004A00033570C9403440C944E570C9499BD0D94FF
:1004B0009E100C94A53A0D9471100D94090F0C9494
:1004C0006BD50C94EB434E414E494E495459494E1D
:1004D00046CDCCCC3D0AD7233C17B7D13877CC2BAF
:1004E000329595E6241FB14F0A000020410000C854
:1004F0004200401C4620BCBE4CCA1B0E5AAEC59DD5
:100500007400407A10F35A00A0724E18090010A52A
:10051000D4E80000E87648170000E40B540200001D
:10052000CA9A3B000000E1F50500008096980000A3
:100530000040420F000000A08601000000102700CC
:10054000000000E803000000006400000000000A52
:1005500000000000000100000000002C76D888DCBC
:10056000674F0823DFC1DFAE59E1B1B796E5E3E499
:1005700053C63AE651997696E8E6C28426EB898C12
:100580009B62ED407C6FFCEFBC9C9F40F2BAA56F74
:10059000A5F490055A2AF75C936B6CF9676DC11B43
:1005A000FCE0E40D47FEF520E6B500D0ED902E030B
:1005B00000943577050080841E080000204E0A0054
:1005C0000000C80C333333330F986E12831141EFA0
:1005D0008D2114893BE65516CFFEE6DB18D1844BFE
:1005E000381BF77C1D901DA4BBE424203284725E6E
:1005F000228100C9F124ECA1E53D27434F4D4D5523
:100600004E49434154494F4E0044525952554E00B1
:100610004552524F525300494E464F004543484FB2
:1006200000536C6565702E2E2E005A2050726F623A
:10063000652050617374204265640A005A2050722C
:100640006F626520506173742042656400486F6D6D
:10065000652058592066697273740A00486F6D6589
:10066000205859204669727374004D657368207074
:100670006F696E742063616E6E6F742062652072A4
:1006800065736F6C7665640A00436C69636B2074F4
:100690006F20526573756D652E2E2E004E6F204DA6
:1006A0006F76652E00456E642066696C65206C6906
:1006B00073740A00426567696E2066696C65206C18
:1006C0006973740A00286E6F2066696C652900439F
:1006D000757272656E742066696C653A20005344C9
:1006E000207072696E74696E67206279746520008B
:1006F0004E6F74205344207072696E74696E670A7D
:100700000044656C6574696F6E206661696C656430
:100710002C2046696C653A200046696C652064654A
:100720006C657465643A005072696E742074696D0A
:10073000653A20000A53746174733A2046696C610B
:100740006D656E7420757365643A20002C204C6FC3
:100750006E67657374206A6F623A2000546F74612B
:100760006C2074696D653A20002C204661696C65C7
:10077000643A20002C2046696E69736865643A20EB
:10078000005072696E74733A200053746174733A46
:10079000200045202553006F6666004445425547BA
:1007A0003A004D3131322053687574646F776E00B2
:1007B0004D31313320530043522D32302050726F6F
:1007C000204F46462E004348414D4245525F544516
:1007D0004D5045524154555245004D4F54494F4E8E
:1007E0005F4D4F44455300544845524D414C5F5076
:1007F000524F54454354494F4E004155544F524572
:10080000504F52545F53445F53544154555300501A
:10081000524F4D50545F535550504F525400454D18
:10082000455247454E43595F50415253455200434C
:100830004153455F4C494748545F425249474854E9
:100840004E45535300544F47474C455F4C4947482A
:10085000545300534F4654574152455F504F5745EC
:1008600052004255494C445F50455243454E540056
:100870004C4556454C494E475F44415441005A5FF0
:1008800050524F4245004155544F4C4556454C003F
:100890005052494E545F4A4F420050524F475245C2
:1008A0005353004155544F5245504F52545F544595
:1008B0004D5000564F4C554D455452494300424906
:1008C0004E4152595F46494C455F5452414E534642
:1008D00045520053455249414C5F584F4E5F584F67
:1008E0004646004649524D574152455F4E414D459F
:1008F0003A4D61726C696E20322E302E352E3120C9
:10090000284769744875622920534F555243455F03
:10091000434F44455F55524C3A68747470733A2F94
:100920002F6769746875622E636F6D2F4D61726CED
:10093000696E4669726D776172652F4D61726C697F
:100940006E2050524F544F434F4C5F5645525349BF
:100950004F4E3A312E30204D414348494E455F5469
:100960005950453A43522D32302050726F2045582D
:100970005452554445525F434F554E543A312055D9
:100980005549443A63656465326132662D3431619C
:10099000322D343734382D396231322D6335356399
:1009A00036326633363766660A002F2F20004D3107
:1009B000343520533C696E6465783E206F75742031
:1009C0006F662072616E67652028302D31290A001C
:1009D000416363656C65726174696F6E3A205000A3
:1009E0003F4A206F7574206F662072616E676520C4
:1009F00028302E303120746F20302E33290A0046E3
:100A0000523A0020466C6F773A200050726F74653E
:100A1000637465642050696E0A00206F7574206FDE
:100A2000662072616E67650A0020536572766F20DA
:100A3000004261627973746570205A0050726F626F
:100A400065204F6666736574205A0050726F626548
:100A5000204F66667365745A3A2000496E76616C61
:100A600069642065787472756465720A0020643A5E
:100A70000020693A0020703A004C434420436F6ED6
:100A800074726173743A20006469730043290A0028
:100A900061626C656420286D696E2074656D7020DC
:100AA00000436F6C642065787472756465732061AF
:100AB000726520004D34323120696E636F72726549
:100AC000637420706172616D657465722075736105
:100AD00067650A004F666673657473204170706CB9
:100AE000696564004572723A20546F6F20666172C6
:100AF0002100546F6F206661722066726F6D2072E4
:100B000065666572656E636520706F696E740A0054
:100B1000454550524F4D204F4B0A001C06170610FA
:100B2000060906FB054572726F7220777269746957
:100B30006E6720746F20454550524F4D210A006268
:100B40007573793A2070617573656420666F7220E1
:100B5000696E7075740A00627573793A20706175F8
:100B600073656420666F7220757365720A00627522
:100B700073793A2070726F63657373696E670A00E8
:100B80004E6F20436865636B73756D207769746879
:100B9000206C696E65206E756D6265722C204C61EB
:100BA0007374204C696E653A2000636865636B73EB
:100BB000756D206D69736D617463682C204C617371
:100BC00074204C696E653A20004C696E65204E7544
:100BD0006D626572206973206E6F74204C6173744E
:100BE000204C696E65204E756D6265722B312C202C
:100BF0004C617374204C696E653A20004D31313080
:100C00000053442072656164206572726F720A003D
:100C10002121204B494C4C2063617573656420622F
:100C200079204B494C4C20627574746F6E2F70693B
:100C30006E0A002121204B494C4C2063617573657D
:100C40006420627920746F6F206D75636820696E0F
:100C50006163746976652074696D65202D20637504
:100C60007272656E7420636F6D6D616E643A200000
:100C7000363726033C3D380E2E303E121A1C18081B
:100C8000440AFF430809000142656420436F6F6C0A
:100C9000696E672E2E2E0042656420486561746976
:100CA0006E672E2E2E0023646566696E65204445AE
:100CB0004641554C545F004B6420004B6920004B6B
:100CC000702000504944204175746F74756E652022
:100CD00066696E6973686564212050757420746854
:100CE00065206C617374204B702C204B6920616E01
:100CF00064204B6420636F6E7374616E747320663E
:100D0000726F6D2062656C6F7720696E746F20431F
:100D10006F6E66696775726174696F6E2E680A001E
:100D2000504944204175746F74756E652066616921
:100D30006C6564212074696D656F75740A000A2002
:100D4000436C617373696320504944200A00204B4F
:100D5000643A2000204B693A2000204B703A200072
:100D60002054753A2000204B753A2000206D6178A0
:100D70003A2000206D696E3A200020643A2000205D
:100D8000626961733A2000504944204175746F7460
:100D9000756E652073746172740A00504944204175
:100DA00075746F74756E65206661696C6564212069
:100DB00054656D706572617475726520746F6F2013
:100DC000686967680A00504944204175746F7475FA
:100DD0006E65206661696C656421204261642065EE
:100DE00078747275646572206E756D6265720A0042
:100DF0004572723A207574663820666F6E74206E84
:100E00006F7420696E697469616C697A65642E001B
:100E10002568753A25303268750025687564202587
:100E2000303268753A253032687500FFE0FFD140F6
:100E3000A0C8A6A22FF80023AC00AF10FFFEFF054C
:100E4000FFD0FFE0FFC1FFD1E240A0C8A6A22FF86B
:100E500000238127AC00AFFFD0FF64FFD1A5FFD0F6
:100E6000FF64FF64FFD1A4FFD0FFFE000C0D00FE65
:100E700007022603BC017FFE08FE08FE05080806DF
:100E8000000040F0C888889878100508080600001F
:100E9000C0F88888888888F8050505060001203094
:100EA000F830200508080600002070F820202020D7
:100EB000E00509090600FF2070A8A8B888887020FE
:100EC000050606060001E08CEA8C8A0A0509090677
:100ED00000FFF8A88888888888A8F8050A0A06000C
:100EE000FE205050505088A8A888700303030600C5
:100EF0000340A040FFFFFFFFFFFFFFFFFFFFFFFFDB
:100F0000FFFFFFFFFFFFFFFFFFFF0000000605FFE1
:100F100001070706020080808080800080030303B1
:100F2000060105A0A0A005060606000050F85050D6
:100F3000F8500509090600FF2070A8A07028A870C5
:100F400020050707060000C8C8102040989805072C
:100F50000706000040A0A040A89068010303060215
:100F6000058080800309090601FF204040808080C1
:100F70004040200309090601FF8040402020204016
:100F8000408005070706000020A8702070A82005F3
:100F900005050600012020F820200203030601FFBA
:100FA000C04080050101060003F8020202060100AC
:100FB000C0C005070706000008101020404080054B
:100FC0000707060000708898A8C8887003070706FE
:100FD000010040C040404040E005070706000070A7
:100FE0008808102040F8050707060000F8081030B0
:100FF00008887005070706000010305090F81010A0
:10100000050707060000F880F00808887005070744
:10101000060000304080F088887005070706000051
:10102000F8081010202020050707060000708888A7
:101030007088887005070706000070888878081097
:1010400060020505060100C0C000C0C00206060619
:1010500001FFC0C000C0408003050506010120401B
:10106000804020050303060002F800F8030505068A
:1010700001018040204080050707060000708810AD
:10108000202000200507070600007088B8A8B88057
:1010900070050707060000708888F88888880507AB
:1010A00007060000F04848704848F00507070600AA
:1010B0000070888080808870050707060000F0486F
:1010C00048484848F0050707060000F88080F0808F
:1010D00080F8050707060000F88080F08080800512
:1010E000070706000070888080988870050707064B
:1010F0000000888888F8888888030707060100E0D0
:101100004040404040E0050707060000381010103E
:101110001090600507070600008890A0C0A0908886
:10112000050707060000808080808080F80507079B
:1011300006000088D8A88888888805070706000068
:101140008888C8A8988888050707060000708888DE
:1011500088888870050707060000F08888F080807E
:101160008005070706000070888888A89068050732
:1011700007060000F08888F0A090880507070600A1
:101180000070888070088870050707060000F82046
:1011900020202020200507070600008888888888EE
:1011A0008870050707060000888888885050200549
:1011B000070706000088888888A8A8500507070642
:1011C000000088885020508888050707060000889E
:1011D000885020202020050707060000F80810206E
:1011E0004080F80309090601FFE08080808080804C
:1011F00080E005070706000080404020101008032B
:1012000009090601FFE020202020202020E005031E
:10121000030600052050880501010600FEF80303BF
:1012200003060105804020050505060000700878CA
:1012300088780507070600008080F0888888F00518
:10124000050506000070808088700507070600000D
:10125000080878888888780505050600007088F0F9
:101260008070050707060000304840E04040400518
:1012700007070600FE70888888780870050707064B
:1012800000008080F08888888803070706010040F6
:1012900000C0404040E00409090601FE1000301083
:1012A000101010906005070706000080808890E00D
:1012B0009088030707060100C04040404040E00519
:1012C0000505060000D0A8A8A8A805050506000089
:1012D000B0C8888888050505060000708888887071
:1012E0000507070600FEF0888888F080800507075C
:1012F0000600FE788888887808080505050600003D
:10130000B0C880808005050506000078807008F070
:101310000507070600002020F820202018050505F5
:1013200006000088888898680505050600008888FA
:101330008850200505050600008888A8A8500505E6
:101340000506000088502050880507070600FE8823
:10135000888850204080050505060000F8102040D0
:10136000F80309090601FF2040404080404040202A
:101370000109090602FF80808080808080808003D0
:1013800009090601FF80404040204040408005039D
:101390000306000248A890FF4C6F6164206D6D0049
:1013A000556E6C6F6164206D6D0046696C2E204433
:1013B00069612E004520696E206D6DC2B3004D330A
:1013C0003033205531204525692053256900504987
:1013D00044204175746F74756E65202A005049442D
:1013E0002D44202A005049442D49202A00504944C8
:1013F0002D50202A00200820466163740020082018
:101400004D6178002008204D696E004175746F743D
:10141000656D7000687474703A2F2F6D61726C691D
:101420006E66772E6F726700322E302E352E3100A9
:101430002020506C616E6E65724275666665724200
:10144000797465733A20002046726565204D656D9C
:101450006F72793A2000436F6D70696C65643A2051
:101460004D617220323420323032300A00204C611B
:10147000737420557064617465643A203230323080
:101480002D30332D3136207C20417574686F723ACF
:10149000202843522D32302050726F290A00322EFC
:1014A000302E352E310A004D61726C696E0020536A
:1014B0006F6674776172652052657365740A0020E7
:1014C0005761746368646F672052657365740A00BE
:1014D0002042726F776E206F757420526573657449
:1014E0000A002045787465726E616C2052657365E0
:1014F000740A00506F77657255700A006175746FD9
:1015000025632E670047323700446F6E6520707286
:10151000696E74696E672066696C650A004D3051AA
:10152000315331383030004D3051315031004D376A
:1015300037004D3331006572726F722077726974B3
:10154000696E6720746F2066696C650A00446F6E6F
:101550006520736176696E672066696C652E0A0086
:101560004D32390025532025632025632025632033
:10157000256300656E6473746F7073206869743AD4
:10158000200001FFFFFFFFFFFFFFFFFFFFFFFFFF47
:101590000FFFFFFFFFFFFFFFFFFFFFFFFFFF1E002B
:1015A00000000000000000000007FFFF38000000FE
:1015B0000000000000000003FFFF700000000000BA
:1015C000000000000001FFFF6000000000000000BC
:1015D00000000000FFFF60000000000000000000AD
:1015E00000007FFFC0000000000000000078000045
:1015F0003FFFC00FC0FC00000000007818001FFF74
:10160000C03FE1FF0000000000783C000FFFC07FFA
:10161000F3FF8000000000783C0007FFC0FFFFFFE1
:10162000C000000000783C0003FFC1F87F87E000A5
:1016300000000078000001FFC1F03F03E00000005F
:101640000078000000FFC1E01E01E01F0003E07809
:101650003C03F07FC1E01E01E07FC00FF8783C073B
:10166000FC3FC1E01E01E1FFE01FFC783C0FFE1FC4
:10167000C1E01E01E3FFF03FFE783C1FFE0FC1E01A
:101680001E01E3F3F83F3E783C3F3F07C1E01E01F7
:10169000E7E0FC7C1F783C3E1F07C1E01E01E7C06D
:1016A0007C7C0F783C3C0F03C1E01E01E7807C7816
:1016B0000F783C3C0F03C1E01E01E7803C780078C6
:1016C0003C3C0F03C1E01E01E7803C7800783C3CC5
:1016D0000F03C1E01E01E7803C7800783C3C0F031B
:1016E000C1E01E01E7C03C7800783C3C0F03C1E03C
:1016F0001E01E3E03C78007C3C3C0F03C1E01E018E
:10170000E3FF3FF8007FBC3C0F03C1E01E01E1FF97
:101710003FF8003FBFFC0F03C1E01E01E0FF3FF8B0
:10172000001FBFFC0F03C1E01E01E07F3FF8000F68
:10173000BFFC0F036000000000000000000000007C
:10174000000760000000000000000000000000062C
:10175000700000000000000000000000000E3800D3
:1017600000000000000000000000001C1E0000003F
:10177000000000000000000000780FFFFFFFFFFFE7
:10178000FFFFFFFFFFFFFFF001FFFFFFFFFFFFFF76
:10179000FFFFFFFFFF805A2056616C756500496EA0
:1017A000646578205900496E6465782058004C655E
:1017B00076656C20436F726E657273004661646576
:1017C000204865696768740045646974204D6573D5
:1017D00068004732380A473239004C6576656C201C
:1017E00042656400436D643A2053746F7700436D23
:1017F000643A2053572D4D6F646500436D643A2061
:101800004465706C6F7900436D643A2053656C6673
:101810002D5465737400436D643A2052657365748A
:10182000002062797465733B206372632000536506
:101830007474696E67732053746F72656420280036
:10184000454550524F4D206461746173697A65203B
:101850006572726F722E0A002073746F7265642055
:1018600073657474696E67732072657472696576E6
:1018700065642028004572723A20454550524F4D0C
:101880002043524300202863616C63756C6174656A
:101890006429210A0020213D2000454550524F4D2A
:1018A00020435243206D69736D61746368202D205D
:1018B0002873746F7265642920004572723A20455E
:1018C0004550524F4D20496E64657800496E6465FD
:1018D000783A20004572723A20454550524F4D20CB
:1018E00056657273696F6E00204D61726C696E3D52
:1018F000563736290A00454550524F4D20766572BD
:1019000073696F6E206D69736D617463682028451B
:101910004550524F4D3D00000075430000614300AB
:1019200000754353544F505045442E200050726967
:101930006E7465722073746F707065642064756571
:1019400020746F206572726F72732E204669782042
:10195000746865206572726F7220616E64207573A1
:1019600065204D39393920746F2072657374617246
:10197000742E202854656D706572617475726520CF
:1019800069732072657365742E20536574206974C1
:101990002061667465722072657374617274696E19
:1019A00067290A0021212053544F502063616C6C39
:1019B00065642062656361757365206F6620424CC3
:1019C000546F756368206572726F72202D20726586
:1019D00073746172742077697468204D3939390ADB
:1019E00000486F74656E6420746F6F20636F6C6461
:1019F0000A004D3630303A20546F6F20436F6C64CC
:101A000000507265737320627574746F6E20746F0A
:101A100020726573756D650A00507265737320627C
:101A20007574746F6E20746F2068656174206E6FBA
:101A30007A7A6C650A00496E736572742066696C07
:101A4000616D656E7420616E6420707265737320C1
:101A5000627574746F6E0A00202020202020200000
:101A60001FE0201020102010102010202010201027
:101A700030300840048003001FE03FF03FF03FF0AB
:101A80001FE01FE03FF03FF03FF00FC00780030072
:101A90003FFFF038007030FC3020FC102078102020
:101AA00030102C00D02E31D02F7BD02F7BD02E3178
:101AB000D02C00D020301020781020FC1030FC30CA
:101AC0003800703FFFF03FFFF03800703186302360
:101AD00087102787902F87D02F03D02030102078B1
:101AE000102078102030102F03D02F87D027879018
:101AF0002387103186303800703FFFF01FFFF81F3A
:101B0000FFF80410400208200208200410400820BA
:101B100080104100104100082080041040000000A7
:101B20001FFFF81FFFF8000000C0000030C10000D8
:101B300000000000F0410000F0410000804002027F
:101B40000400002041000020410000004000007718
:101B50004300006C4300007543FFFFFF5761726E46
:101B6000696E673A20486F6D696E672042756D70C7
:101B70002044697669736F72203C20310A0024F496
:101B8000D43050C38E20C2A24017828B7011127ABB
:101B9000910D816CD90AA861E108C75866076151A7
:101BA00043061E4B5D05C145A7041A411104093DBA
:101BB0009803713931034036DB0265339102D4302A
:101BC0005402802E1D02632CEE01752AC501B02837
:101BD000A001102781018F2564012B244B01E022F5
:101BE0003401AC211F018D200D01801FFC00841EDB
:101BF000ED00971DDF00B81CD200E61BC600201BBD
:101C0000BC00641AB200B219A8000A19A0006A1830
:101C10009900D117910040178B00B516840031163A
:101C20007E00B31579003A157300C7146F0058147D
:101C30006A00EE1366008813630025135E00C71266
:101C40005B006C12570015125400C1115100701145
:101C50004F0021114B00D61049008D10470046104F
:101C6000440002104200C00F4000800F3E00420FAF
:101C70003C00060F3B00CB0E3800930E37005C0E85
:101C80003500270E3400F30D3200C10D3100900DE8
:101C90003000600D2E00320D2D00050D2C00D90CEA
:101CA0002B00AE0C2900850C29005C0C2700350C9C
:101CB00027000E0C2600E80B2400C40B2400A00B08
:101CC00023007D0B23005A0B2100390B2100180B38
:101CD0002000F80A1F00D90A1E00BB0A1E009D0A38
:101CE0001D00800A1D00630A1C00470A1B002C0A05
:101CF0001B00110A1A00F7091A00DD091900C409AE
:101D00001900AB091900920917007B091800630933
:101D100017004C09160036091600200916000A099A
:101D20001500F5081500E0081400CC081400B808E8
:101D30001400A4081400900813007D0812006B081A
:101D40001300580812004608120034081100230836
:101D500011001208110001081100F0071000E0073F
:101D60001000D0071000C0071000B0070F00A10737
:101D7000100091070E0083070F0074070F0065071E
:101D80000E0057070E0049070E003B070D002E07F7
:101D90000E0020070D0013070D0006070D00F906C1
:101DA0000C00ED060D00E0060C00D4060C00C80681
:101DB0000C00BC060C00B0060C00A4060B00990633
:101DC0000C008D060B0082060B0077060B006C06DC
:101DD0000B0061060A0057060B004C060A0042067B
:101DE0000A0038060A002E060A0024060A001A060F
:101DF0000A001006090007060A00FD050900F4059F
:101E00000900EB050900E2050900D9050900D00524
:101E10000900C7050900BE050900B5050800AD05A4
:101E20000800A50509009C050800940508008C051C
:101E30000800840508007C050800740508006C058E
:101E40000700650508005D050700560508004E05FA
:101E50000700470507004005080038050700310561
:101E600007002A050700230507001C0506001605C4
:101E700007000F0507000805060002050700FB0420
:101E80000600F5040700EE040600E8040600E2047C
:101E90000700DB040600D5040600CF040600C904D1
:101EA0000600C3040600BD040600B7040600B10422
:101EB0000500AC040600A6040600A00405009B046F
:101EC000060095040500900406008A0405008504B8
:101ED0000500800406007A040500750405007004FE
:101EE00005006B04050066040500610405005C0440
:101EF000050057040500520405004D040500480480
:101F00000500430405003E0404003A0405003504BE
:101F10000500300404002C040500270404002304F9
:101F200005001E0404001A04040016040500110430
:101F300004000D0404000904050004040400000466
:101F40000400FC030400F8030400F4030400F0039D
:101F50000400EC030400E8030400E4030400E003CD
:101F60000400DC030400D8030400D4030400D003FD
:101F70000400CC030400C8030300C503030024F4D9
:101F800004D9201BC40C5C0E9804C4095F026507C9
:101F90007101F405F900FB04B30048048700C10394
:101FA00069005803550003034500BE023A0084024D
:101FB000310053022A002902250004022000E40116
:101FC0001C00C8011900AF0117009801140084011A
:101FD0001300710110006101100051010E00430156
:101FE0000D0036010B002B010B0020010B00150129
:101FF00009000C01090003010800FB000800F300C0
:102000000800EB000700E4000600DE000600D80030
:102010000600D2000600CC000500C7000500C20083
:102020000500BD000400B9000400B5000400B100C3
:102030000400AD000400A9000400A5000300A200F4
:1020400003009F0004009B0003009800030095001C
:10205000020093000300900003008D0002008B003B
:102060000300880002008600020084000300810053
:1020700002007F0002007D0002007B000200790068
:102080000200770001007600020074000200720076
:102090000100710002006F0002006D0001006C0081
:1020A00002006A000100690002006700010066008A
:1020B000010065000100640002006200010061008F
:1020C0000100600001005F0002005D0001005C0093
:1020D00001005B0001005A00010059000100580096
:1020E0000100570001005600010055000100540096
:1020F0000100530000005300010052000100510094
:102100000100500001004F0001004E0000004E0091
:1021100001004D0001004C0001004B0000004B008D
:1021200001004A0001004900010048000000480089
:102130000100470001004600000046000100450084
:10214000000045000100440001004300000043007E
:102150000100420000004200010041000000410077
:102160000100400001003F0000003F0001003E0070
:1021700000003E0001003D0000003D0001003C0069
:1021800000003C0000003C0001003B0000003B0060
:1021900001003A0000003A00010039000000390057
:1021A000010038000000380000003800010037004E
:1021B0000000370001003600000036000000360045
:1021C000010035000000350000003500010034003A
:1021D0000000340000003400010033000000330030
:1021E0000000330001003200000032000000320025
:1021F000010031000000310000003100010030001A
:10220000000030000000300001002F0000002F000F
:1022100000002F0000002F0001002E0000002E0003
:1022200000002E0001002D0000002D0000002D00F8
:1022300000002D0001002C0000002C0000002C00EC
:1022400000002C0001002B0000002B0000002B00E0
:1022500000002B0001002A0000002A0000002A00D4
:1022600000002A00010029000000290000002900C8
:1022700000002900000029000100280000002800BB
:1022800000002800000028000000280001002700AE
:1022900000002700000027000000270000002700A2
:1022A0000100260000002600000026000000260095
:1022B0000000260001002500000025000000250088
:1022C000000025000000250000002500010024007A
:1022D000000024000000240000002400000024006E
:1022E0000100230000002300000023000000230061
:1022F0000000230000002300000023000100220052
:102300000000220000002200000022000000220045
:102310000000220001002100000021000000210037
:102320000000210000002100000021000000210029
:10233000010020000000200000002000000020001C
:10234000000020000000200000002000000020000D
:1023500001001F0000001F0000001F0000001F0000
:1023600000001F0000001F0000001F0001001E00F1
:1023700000001E0000001E0000001E0000000437C8
:1023800000001E290000511B000058100000100919
:102390000000CC040000780200004101000020741D
:1023A0006F6F206C6F6E6720657874727573696FDC
:1023B0006E2070726576656E7465640A0020636FC6
:1023C0006C6420657874727573696F6E20707265C5
:1023D00076656E7465640A00202F002042403A0042
:1023E00020403A0020573A007C3C3E5E2B3D3F2F78
:1023F0005B5D3B2C2A225C004A756E6374696F6ECC
:10240000204465760050726F62652059204F6666E1
:102410007365740050726F62652058204F66667352
:102420006574004573746570732F6D6D005A737415
:102430006570732F6D6D005973746570732F6D6DBA
:10244000005873746570732F6D6D00496E69740068
:102450004D34323800496E697469616C697A65205F
:10246000454550524F4D0053746570732F6D6D008C
:1024700050726F6265204F666673657473004A65BB
:10248000726B00416363656C65726174696F6E00A5
:1024900056656C6F636974790053657420486F6D7D
:1024A00065204F666673657473004E6578742050BE
:1024B0006F696E7400446F6E65004E6578740048F5
:1024C0006F6D696E672058595A0020436F756E749E
:1024D00020583A00453100626564002C20737973FE
:1024E00074656D2073746F70706564212048656138
:1024F0007465725F49443A200048656174696E678B
:10250000204661696C65640048656174696E672086
:102510006661696C656400202D20496E76616C6986
:1025200064206578747275646572206E756D62657D
:102530007220210A00544845524D414C2052554EBC
:102540004157415900546865726D616C2052756E37
:1025500061776179004572723A204D415854454D7A
:1025600050004D415854454D50207472696767655D
:10257000726564004572723A204D494E54454D5083
:10258000004D494E54454D5020747269676765721D
:102590006564004D383420582D32205932323520B0
:1025A0005A20450070012C0190012701B001220141
:1025B000C0011D01F00118011002130130020E01CB
:1025C0006002090190020401C002FF000003FA004A
:1025D0004003F5008003F000D003EB002004E60088
:1025E0007004E100E004DC004005D700C005D20023
:1025F0004006CD00D006C8008007C3003008BE00EA
:10260000F008B900C009B400B00AAF00B00BAA00CE
:10261000D00CA500000EA000500F9B00C01096002B
:102620005012910000148C00C0158700B017820072
:10263000B0197D00D01B7800001E730040206E0092
:1026400090226900F024640040275F0090295A001E
:10265000E02B5500102E500020304B001032460069
:10266000E033410090353C001037370070383200BD
:10267000A0392D00B03A2800A03B2300603C1E008A
:10268000103D1900903D1400103E0F00703E0A00EE
:10269000C03E0500003F0000403FFBFF803FF6FFCB
:1026A000C03FF1FF4C6F61642053657474696E67BD
:1026B000730053746F72652053657474696E677329
:1026C00000416476616E6365642053657474696E5D
:1026D000677300554E4C4F41442046494C414D458F
:1026E0004E540046494C414D454E54204348414EBE
:1026F000474500526573746F726520446566617565
:102700006C74730050726568656174204142532097
:10271000436F6E66005072656865617420504C416D
:1027200020436F6E66004C434420436F6E747261A9
:10273000737400424C546F756368004D373032201B
:10274000542564004D36303020423020542564003A
:102750004D373032203B2564004D37303120542531
:102760006400436F6E74696E7565005075726765BD
:10277000206D6F726500524553554D45204F5054A2
:10278000494F4E533A005052494E542050415553F0
:1027900045440020204E6F7A7A6C653A2000256C03
:1027A000642E25696D0045787472756465642054E3
:1027B0006F74616C004C6F6E67657374204A6F6252
:1027C0002054696D65003E2000546F74616C205088
:1027D00072696E742074696D6500436F6D706C650D
:1027E000746564005072696E7420436F756E740076
:1027F000313235004245443A4550434F5320313041
:10280000304B0052756E617761792057617463684F
:102810003A204F4E004D61782054656D700032377C
:1028200035004D696E2054656D700045313A204584
:1028300050434F53203130304B005061726B696E02
:10284000672E2E2E0000005761697420666F72009B
:1028500066696C616D656E74206368616E676500A2
:10286000746F207374617274005761697420666FAD
:10287000720066696C616D656E7420756E6C6F6157
:102880006400004E6F7A7A6C652068656174696EC9
:102890006700506C6561736520776169742E2E2E18
:1028A0000000507265737320627574746F6E0074EB
:1028B0006F2068656174206E6F7A7A6C65000049DC
:1028C0006E736572742066696C616D656E7400610B
:1028D0006E6420707265737320627574746F6E001D
:1028E000746F20636F6E74696E75650057616974EB
:1028F00020666F720066696C616D656E74206C6F26
:1029000061640000507265737320427574746F6E59
:1029100000746F20726573756D65207072696E74D6
:1029200000005761697420666F72207072696E745E
:1029300000746F20726573756D652E2E2E00005722
:1029400061697420666F720066696C616D656E7492
:102950002070757267650000436F6E6669677572F7
:102960006174696F6E005053550047656E657269FA
:10297000630050726F746F636F6C00312E300042D1
:10298000617564003131353230300052414D505361
:1029900020312E340042696C696E656172204C658D
:1029A00076656C696E6700457874727564657273DC
:1029B0000043522D32302050726F00323032302DB1
:1029C00030332D3136005072696E74657220537445
:1029D00061747300546865726D6973746F7273000B
:1029E000426F61726420496E666F005072696E7446
:1029F000657220496E666F0053746F7000436861A2
:102A00006E67652046696C616D656E740050726515
:102A10006865617420437573746F6D004261636B08
:102A2000004D3231004368616E6765204D65646911
:102A3000610041626F7574205072696E7465720036
:102A40004D36303020423000526573756D65205030
:102A500072696E74004E6F204D6564696100547533
:102A60006E650053746F70205072696E7400496E09
:102A7000666F2053637265656E0054656D70657294
:102A800061747572650050726568656174204142B9
:102A900053005072656865617420504C410050725B
:102AA0006F6265205A204F66667365740046616EDA
:102AB000205370656564004E6F7A7A6C65004D61D5
:102AC000696E005072656865617420504C41204504
:102AD0006E64005072656865617420504C412042FC
:102AE00065640050726568656174204142532045F9
:102AF0006E640050726568656174204142532042E3
:102B0000656400436F6F6C646F776E00466C6F771F
:102B1000002053697A653A20004D32332025730036
:102B200046696C652073656C65637465640A00466C
:102B3000696C65206F70656E65643A2000454E448F
:102B400020535542524F5554494E450A0022207099
:102B50006F73002220706172656E743A22005355C3
:102B600042524F5554494E452043414C4C207461CC
:102B7000726765743A2200747279696E6720746FA7
:102B80002063616C6C207375622D67636F646520D0
:102B900066696C6573207769746820746F6F206D47
:102BA000616E79206C6576656C732E204D415820DE
:102BB0006C6576656C2069733A310A0057726974E6
:102BC000696E6720746F2066696C653A20006672D2
:102BD00065736800646F696E67004E6F7720006FE1
:102BE00070656E206661696C65642C2046696C6551
:102BF0003A200020453A00205A3A0020593A003F36
:102C00000043616E63656C004F6666004F6E004D59
:102C10006F74696F6E004175746F20486F6D650049
:102C20005374617274205072696E740043616E6EE9
:102C30006F7420656E746572207375626469723A90
:102C40002000022E2E00536F667420456E6473744C
:102C50006F7073004D38340044697361626C652095
:102C60005374657070657273004732380050617537
:102C70007365205072696E74004D656469612052FD
:102C8000656D6F766564004D6564696120496E739A
:102C90006572746564005072696E742041626F726F
:102CA000746564004D323520500A4D3234004F4671
:102CB000460A0046616465204865696768742000BB
:102CC000426564204C6576656C696E6720004661DC
:102CD000696C656420746F20656E61626C6520426A
:102CE0006564204C6576656C696E670A00496E768E
:102CF000616C6964206D6573682E0A0050726F62A2
:102D0000696E6720506F696E740025532025692F06
:102D100025690050726F62696E67206D6573682067
:102D2000706F696E742000202844525952554E2904
:102D300000473239204175746F20426564204C652C
:102D400076656C696E67003F20284C2C522C462C0F
:102D50004229206F7574206F6620626F756E6473F0
:102D60002E0A003F2856296572626F7365206C65D4
:102D700076656C20696D706C61757369626C652035
:102D800028302D34292E0A00426164205A207661B1
:102D90006C75650A004E6F2062696C696E656172C0
:102DA00020677269640A004361703A0047322F4716
:102DB000332062616420706172616D657465727345
:102DC0000A003F5A206F7574206F662072616E672B
:102DD000652028003F59206F7574206F662072614E
:102DE0006E676520282D0020746F20003F58206FEB
:102DF0007574206F662072616E676520282D005003
:102E0000726F6265204F6666736574205800656E48
:102E10007175657565696E672022006F6B0052657C
:102E200073656E643A200025697920256964202540
:102E300069682025696D20256973005072696E7478
:102E40002066726F6D204D6564696100205A3A20DA
:102E50000020593A200042656420583A2000507200
:102E6000696E74205061757365640050726F626999
:102E70006E67204661696C65640A0050726F626912
:102E80006E67204661696C656400486F6D6520253A
:102E9000732573257320466972737400220A0055E6
:102EA0006E6B6E6F776E20636F6D6D616E643A202E
:102EB000220043522D32302050726F2052656164DF
:102EC000792E005072696E74696E672E2E2E002066
:102ED000520048617264636F646564204465666192
:102EE000756C742053657474696E6773204C6F61E0
:102EF0006465640A003B200020204D3630332000FA
:102F000020550046696C616D656E74206C6F61645C
:102F10002F756E6C6F6164206C656E677468733AB0
:102F20000020204D3835312058005A2D50726F62E4
:102F300065204F66667365740020204D3235302061
:102F400043004C434420436F6E74726173743A00C3
:102F500020204D3330312050005049442073657497
:102F600074696E67733A0020460020480020204DA7
:102F70003134352053004D6174657269616C20688D
:102F8000656174757020706172616D6574657273CE
:102F90003A002020473239205720490020204D3464
:102FA00032302053004175746F20426564204C65B7
:102FB00076656C696E673A0020204D3230362058B5
:102FC00000486F6D65206F66667365743A00204A2D
:102FD0000020204D323035204200416476616E631E
:102FE00065643A20423C6D696E5F7365676D656E1E
:102FF000745F74696D655F75733E20533C6D696ED7
:103000005F66656564726174653E20543C6D696EEF
:103010005F74726176656C5F666565647261746524
:103020003E204A3C6A756E635F6465763E002054BC
:103030000020204D323034205000416363656C65C0
:10304000726174696F6E2028756E6974732F7332A4
:10305000293A20503C7072696E745F616363656CDD
:103060003E20523C726574726163745F6163636594
:103070006C3E20543C74726176656C5F616363657D
:103080006C3E0020204D3230312058004D6178696F
:103090006D756D20416363656C65726174696F6EF7
:1030A0002028756E6974732F7332293A0020204DE1
:1030B0003230332058004D6178696D756D2066653A
:1030C000656472617465732028756E6974732F73FB
:1030D000293A0053746570732070657220756E69AB
:1030E000743A0020204D3230302044300A00202035
:1030F0004D3230302044002044697361626C656455
:103100000A0046696C616D656E742073657474693C
:103110006E67733A0020204D3134392043203B2024
:10312000556E69747320696E2043656C736975739D
:103130000A0020286D6D29002020473231202020F0
:10314000203B20556E69747320696E206D6D0048B8
:103150006F6D696E67204661696C6564006F7065AC
:103160006E00545249474745524544007A5F6D69A5
:103170006E00795F6D696E00785F6D696E005265F3
:10318000706F7274696E6720656E6473746F7020FF
:103190007374617475730A000000FA430000FA4307
:1031A0000000A0400000C8410000A0420000A04272
:1031B0000000C8430000C242F4010000F401000016
:1031C00064000000881300005654726176204D6937
:1031D0006E00566D696E00566D6178204500566D23
:1031E0006178205A00566D6178205900566D6178DB
:1031F000205800416D6178204500416D6178205A6A
:1032000000416D6178205900416D6178205800417E
:103210002D54726176656C00412D52657472616344
:103220007400416363656C0043616E6E6F74206F60
:1032300070656E2073756264697220005344206368
:10324000617264206F6B0A006F70656E526F6F74ED
:10325000206661696C65640A00766F6C756D652E19
:10326000696E6974206661696C65640A0053442064
:10327000696E6974206661696C0A0000002100248F
:103280000027002A002D0030003300010100000457
:103290000107010A0100002200250028002B002E52
:1032A000003100340002010000050108010B01009B
:1032B0000020002300260029002C002F00320000EF
:1032C00001000003010601090105050505070508C0
:1032D000080808020202020A0A0808040404040199
:1032E00001010101010101030303030303030304BB
:1032F0000707070C0C0C0C0C0C0C0C02020202064B
:10330000060606060606060B0B0B0B0B0B0B0B013A
:1033100002102020080810204010204080020102E6
:1033200001080402010102040810204080804020AE
:1033300010080402018004020180402010080402E9
:103340000108040201010204081020408001020467
:10335000081020408000000A0B02090C0D0E08071F
:103360000304010000000000000000000000000055
:10337000000000000000000000000000000000004D
:10338000001211100000000000000000000000000A
:1033900000000000000000000000004D6F76652076
:1033A00025736D6D004D6F766520302E316D6D008B
:1033B0004D6F766520316D6D004D6F766520313033
:1033C0006D6D004D6F7665204178697300486F74AC
:1033D000656E6420746F6F20636F6C640045787451
:1033E0007275646572004D6F7665205A004D6F7678
:1033F000652059004D6F7665205800204D393220E8
:10340000580020204D61783A200020204D696E3A06
:103410002000536F667420656E6473746F70733A26
:10342000200020496E76616C69642065787472753D
:103430006465722000506C65617365205265736528
:1034400074005052494E5445522048414C54454412
:103450000025533A202553004B494C4C45442E201F
:10346000005072696E7465722068616C7465642EB8
:10347000206B696C6C28292063616C6C6564210A7F
:10348000006563686F3A004572726F723A00426974
:103490006C696E656172204C6576656C696E67203B
:1034A000477269643A0A00537562646976696465B3
:1034B000642077697468204341544D554C4C205228
:1034C0004F4D204C6576656C696E67204772696464
:1034D0003A0A0000DB01350111241FBECFEFD1E213
:1034E000DEBFCDBF00E00CBF13E0A0E0B2E0ECE235
:1034F000FBE602E00BBF02C007900D92A437B107B4
:10350000D9F728E1A4E7B3E001C01D92A332B207C6
:10351000E1F71AE1CBE6DAE100E006C02197010904
:10352000802FFE010F94E531CA36D10780E00807ED
:10353000A9F70F942B1D0D9484350C9400002F9245
:103540003F924F925F926F927F928F929F92AF9233
:10355000BF92CF92DF92EF92FF920F931F93CF9380
:10356000DF93CDB7DEB7E1970FB6F894DEBF0FBE9D
:10357000CDBF88AB20917E032DA781E080937E0391
:10358000809192168D3409F449C3843511F40C945A
:10359000992B873411F00C94B42B20919016309114
:1035A00091162B31310509F48DC09CF4243031057E
:1035B00034F422303105CCF537FF2BC02BC3243037
:1035C000310509F440C02531310511F40C94B62BB6
:1035D00021C32A32310509F4F6C15CF42D313105DD
:1035E00009F49AC00CF488C02E31310509F4A8C042
:1035F00011C32B35310509F463C12C35310509F4AC
:1036000064C12A35310509F005C310927D030C947D
:10361000B62B80916704813011F00C94B62B0F9477
:10362000B1130E94D5810C94B62B80916704813030
:1036300011F00C94B62B2230310509F080E00E9485
:1036400057F20C94B62B80E50E94A3E8882329F05A
:103650000F9427186B017C0103C0C12CD12C76017B
:1036600083E50E94A3E8882361F00E945BE620E0E6
:1036700030E04AE754E40F945E2B0F9461336B0102
:103680007C010E94BD7A80910216811105C060E024
:1036900081E296E00E9464E00F94F510C60ED71EFA
:1036A000E81EF91E0F94F510DC01CB018C199D0961
:1036B000AE09BF09B7FD02C00C94B62B80E00E9492
:1036C0008634F0CF0E9420F981110C94B62B8CE047
:1036D000E4E8F2E0DE01119601900D928A95E1F79F
:1036E00060E070E080E50F94EA16BE016F5F7F4FE7
:1036F0000E9437DF0C94B62B80913C17877087307F
:1037000011F00C94BF2B60E08FE40E94CBE8811194
:103710000C94B62B0C94BF2B0E9420F981110C94B1
:10372000B62B80916409882311F40C94DD2D60E0A0
:103730008FE40E94CBE881110C94B62B0C94DD2D04
:103740002091301730913117409132175091331733
:1037500060915D0270915E0280915F0290916002C3
:103760000F94EE31AB01BC0188E50E945D4969838D
:103770007A838B839C832091341730913517409145
:1037800036175091371760916102709162028091F3
:103790006302909164020F94EE31AB01BC0189E5A4
:1037A0000E945D496D837E838F839887BE016B5F26
:1037B0007F4FCE0101960E9472E4882311F40C948D
:1037C000B62B80E00E946A710E94B08461E085E4BB
:1037D0000E94CBE821E0482FBE016B5F7F4FCE01F6
:1037E00001960E9476F96B017C019B01AC010F945C
:1037F000E03481115FC089809A80AB80BC8020E07A
:1038000030E0A901C501B4010F94F82A87FF05C073
:1038100027E137EB41E558EB04C027E137EB41E501
:1038200058E3C501B4010F94EE31AB01BC0186E54C
:103830009EE20F94411C8D809E80AF80B88420E072
:1038400030E0A901C501B4010F94F82A87FF05C033
:1038500027E137EB41E558EB04C027E137EB41E5C1
:1038600058E3C501B4010F94EE31AB01BC0181E511
:103870009EE20F94411C20E030E0A901C701B6018F
:103880000F94F82A87FF05C067E177EB81E598EB95
:1038900004C067E177EB81E598E3A70196010F94F7
:1038A000EE31AB01BC018CE49EE20F94411C8AE036
:1038B0000E945A330E9497840E9465FF0C94B62B95
:1038C0008FE080937D030C94B62BB0E92B2EB2E0F1
:1038D0003B2E1DE3E12E19E0F12E2DE532E03DA354
:1038E0002CA306EFC02E01E1D02E00E010E0D101A4
:1038F0008D911D010E94A3E8882309F44BC00E940A
:103900005BE62B013C01133049F0F6012081318147
:10391000428153810F94ED312B013C01ACA1BDA13B
:103920002D913D914D915C91C301B2010F94ED3108
:103930004B015C012DEB37E346E855EB0F944E3419
:1039400087FD0AC02DEB37E346E855E3C501B40116
:103950000F94F82A1816F4F4133051F440926902C7
:1039600050926A0260926B0270926C0201E012C087
:10397000A5019401F70160817181828193810F9487
:10398000EE31D7016D937D938D939C931397812F87
:103990000E94D47F1F5FB4E0EB0EF11CECA1FDA1EF
:1039A0003496FDA3ECA3F4E0CF0ED11C143009F043
:1039B0009ECF002321F089E692E00E94907D0E9434
:1039C00065FF0C94B62B80916704813011F00C9444
:1039D000B62B89E40E94A3E8E82E882321F00E94F8
:1039E00057E6082F01C000E08AE40E94A3E8F82E01
:1039F000882321F00E9457E6182F01C010E0EE2026
:103A000011F0043020F4FF2041F0143030F08AE649
:103A100096E00F94FE1B0C94B62B80E1EDE5F2E0EE
:103A2000ABE4B9E001900D928A95E1F7EE2019F12F
:103A3000602F000F770B880B990B0F94FF2A2091B2
:103A4000090630910A0640910B0650910C060F941E
:103A50005E2B2091010630910206409103065091A1
:103A600004060F94EE3160934B0970934C098093D8
:103A70004D0990934E09FF2019F1612F110F770B1B
:103A8000880B990B0F94FF2A20910D0630910E069A
:103A900040910F06509110060F945E2B2091050661
:103AA0003091060640910706509108060F94EE31BA
:103AB00060934F0970935009809351099093520974
:103AC00060E080E50E94CBE88823C1F1EE20D1F0D0
:103AD00020913017309131174091321750913317A0
:103AE00060914B0970914C0980914D0990914E095C
:103AF0000F94ED3160934B0970934C0980934D09FD
:103B000090934E09FF20D1F0209134173091351752
:103B1000409136175091371760914F0970915009B5
:103B200080915109909152090F94ED3160934F09A2
:103B300070935009809351099093520940E050E0EE
:103B4000BA0186E40E945D496B017C0120E030E00F
:103B5000A9010F944E3418165CF420E030E040E7E1
:103B600052E4C701B6010F94E8326B017C0103C037
:103B7000C12CD12C760180907D0290907E02A09085
:103B80007F02B090800220E030E0A901C701B601B9
:103B90000F94F82A882341F0C0927D02D0927E02D1
:103BA000E0927F02F0928002009137021091380279
:103BB00084E690E09093380280933702C0904B02E5
:103BC000D0904C02E0904D02F0904E0280E090E0E8
:103BD000A0E8BFE380934B0290934C02A0934D0268
:103BE000B0934E020E94D58180927D0290927E0217
:103BF000A0927F02B09280021093380200933702A5
:103C0000C0924B02D0924C02E0924D02F0924E02D2
:103C10000C94B62B0E9406F90C94B62B809190164A
:103C2000909191168737910509F4E3C70CF0DEC037
:103C30008D34910509F41DC40CF05DC089319105E6
:103C400009F4B3C21CF58431910509F43EC27CF439
:103C50008131910509F425C22CF4029708F4BEC104
:103C60000C94962B429709F440C60C94962B8631FF
:103C7000910509F44FC20CF449C28731910509F44A
:103C800052C2489709F464C20C94962B8E31910568
:103C900009F4FFC2ACF48B31910509F49FC20CF416
:103CA0008FC28C31910509F4ECC24D9711F00C9440
:103CB000962B8091A9148E7F8093A9140C94B62B17
:103CC0008A32910509F4A9C34CF48F31910509F4A6
:103CD00084C3809709F43EC30C94962B8B349105D2
:103CE00009F4C3C38C34910511F00C94962B0E94F7
:103CF000D2DB0C94B62B8B36910509F4FCC4D4F5B9
:103D00008435910509F4F1C5E4F48135910509F490
:103D1000D1C534F48E34910509F4AFC30C94962BBD
:103D20008235910509F4DAC58335910511F00C94BB
:103D3000962B80917D038F7E806280937D030C940F
:103D4000B62B8836910509F42AC454F485359105BB
:103D500009F4F7C58C35910509F416C60C94962B19
:103D60008936910509F494C48A36910509F4A4C4EE
:103D70000C94962B8037910509F425C584F48D3673
:103D8000910509F430C40CF419C58E36910509F477
:103D9000BDC48F36910509F4CCC40C94962B83379F
:103DA000910509F47BC68CF48137910509F413C59C
:103DB0008237910511F00C94962B0E94B4D180E2C9
:103DC00093E10E94DCB60C94B62B8537910509F47B
:103DD000CEC68637910511F00C94962B00918E1665
:103DE00010918F1694E0F12C40E0E7C68C3221E070
:103DF000920711F40C9419290CF069C08B3C9105C1
:103E000009F4D1C754F58139910509F404C784F444
:103E10008937910509F4F8C60CF4EEC68D37910583
:103E200009F445C58C38910509F4F7C40C94962B18
:103E30008E3B910509F412C534F48B39910509F4D0
:103E400010C50C94962B883C910509F43FC7893C1A
:103E5000910509F485C70C94962B8C3D910511F4BE
:103E60000C944F27ACF48D3C910511F40C9423274E
:103E70000CF4B8C78E3C910511F40C943127833DA6
:103E8000910511F00C94962B0F94FD160C94B62B03
:103E90008A3F910511F40C94AE2964F48D3D91058F
:103EA00011F40C947627823E910511F40C94CC27E2
:103EB0000C94962B8831A1E09A0711F40C941828E1
:103EC0008232914011F40C94AF280C94962B843FCD
:103ED000E1E09E0711F40C94DE2A0CF042C0813917
:103EE00021E0920711F40C940A2AC4F48E32A1E066
:103EF0009A0711F40C94C32914F40C942E298F32D0
:103F0000E1E09E0711F40C94072A8039914011F0EA
:103F10000C94962B0E94BD7A0C94B62B843A21E027
:103F2000920711F40C94192A7CF48239A1E09A07C3
:103F300011F40C94142A8A39914011F00C94962BA8
:103F40000E94C6300C94B62B853AE1E09E0711F42E
:103F50000C941C2A8C3A914011F40C94802A0C94F5
:103F6000962B8C3022E0920711F40C94012BB4F4C0
:103F7000863FA1E09A0711F40C94E42A14F40C94FF
:103F8000E12A873FE1E09E0711F40C94E72A883F7D
:103F9000914011F40C94F02A0C94962B833523E075
:103FA000920711F40C94852B6CF48835A2E09A07E3
:103FB00011F40C94092B8B35924011F40C940C2BBA
:103FC0000C94962B803AE3E09E0709F4F8C1873EF3
:103FD000934011F40C94882B0C94962B80E50E944E
:103FE000A3E8882329F00F9427186B017C0103C0F4
:103FF000C12CD12C760183E50E94A3E8882361F0CF
:104000000E945BE620E030E04AE754E40F945E2B28
:104010000F9461336B017C010E94BD7A81E50E949F
:1040200092E6182F80918E1690918F16009721F0AE
:1040300061E00E94E3E007C0111105C060E089E87B
:1040400096E00E9464E000917E0383E080937E030B
:1040500081E080935A16C114D104E104F10431F0D7
:104060000F94F510C60ED71EE81EF91E80915A1641
:10407000882311F40C94E52DC114D104E104F1045A
:1040800011F40C94E02D0F94F510DC01CB018C1988
:104090009D09AE09BF09B7FF02C00C94E02D0C9436
:1040A000E52D8091931684FF02C00C94EE2D809133
:1040B000951687FF02C00C94EE2D809196168370A2
:1040C00011F00C94EE2D0C940A2E84EB96E00F94D4
:1040D000FE1B8CE792E10E946DA18BE1ECE7F2E11F
:1040E000DE01119601900D928A95E1F760E070E093
:1040F000CE0101960F94EF0DCE0101960E9472A1A0
:1041000085EA96E00F94FE1B0C94B62B0F94610980
:104110000C94B62B0E9439CD8091A914877F80938F
:10412000A9140C94B62BE0918E16F0918F16808115
:10413000882329F0803209F410823196F8CF60E0AC
:1041400080918E1690918F160E9498CD0C94B62B6C
:1041500080916D0F8823E9F080E090E0A8E4B2E45C
:1041600088A399A3AAA3BBA31C8E1D8E1E8E1F8E8F
:1041700019821A821B821C8220E0AE01405E5F4FD2
:10418000BE01645E7F4FCE0101960E94F5690C94DA
:10419000B62B0E94EE30882321F00E94B7CE0E94F9
:1041A000F88D0E94CCF80C94B62B8091A91482FF54
:1041B00003C08B7F8093A9140F941C160C94B62B0C
:1041C0008091A91483FD02C00C94B62B83E50E9454
:1041D000A3E881110C94182E0C94B62B83E40E9452
:1041E00092E6882319F18FEC96E00F94FE1B8091E4
:1041F0002612882391F0BE016F5F7F4F83E292E128
:104200000E9434A08E010F5F1F4FD8018D918D0148
:10421000882339F00E945A33F8CF85EC96E00F944A
:10422000FE1B8AE00E945A330C94B62B8091A9148D
:1042300082FF21C08EED96E00F94FE1B6091A514C5
:104240007091A6148091A7149091A8144AE00E943E
:1042500061338FE20E945A336091A1147091A214CD
:104260008091A3149091A4144AE00E9461330E94AB
:104270005F340C94B62B80EF96E00F94FE1B0C94E9
:10428000B62B80918E1690918F160E944ACD0C9479
:10429000B62B8091A91483FD02C00C94B62B0E940A
:1042A000EFF88091A91483FD02C00C94B62B4091C5
:1042B0008E1650918F16BE01645E7F4F80E00E9483
:1042C00001D38C01009711F40C94B62B6C8D7D8D6D
:1042D00019821C8222E0AC01CE0101960E94A2A5A7
:1042E000811102C0F12C14C0CE0101960E946FD240
:1042F0008823C1F361E0CE0101960E9418A00097C7
:1043000089F325EEFC0120831C820F94B30AF82E5A
:10431000CE0101960E9472A1B801FF2089F089E1C7
:1043200097E00F945F1C8AE00E945A331092A51404
:104330001092A6141092A7141092A8140C94B62BE5
:1043400081E097E00F945F1C85E89DE20F94FE1BCF
:104350000C94B62B8091A91482FD0E94BD7A8091A5
:10436000A91483FD02C00C94B62B60E080E50E9486
:10437000CBE8182F682F80918E1690918F160E948F
:1043800098CD83E50E94A3E8882381F00E9423E66C
:10439000AB01BC014093A5145093A6146093A714DD
:1043A0007093A81483E292E10F94D90C0E94B7CEC7
:1043B00011110C94B62B0E94F88D0C94B62B209101
:1043C0008E1630918F169091A91492609093A91433
:1043D000C9010E944ACD0C94B62B0E94A8686C8F2C
:1043E0007D8F8E8F9F8FBE016F5F7F4FCE014C966A
:1043F0000E94A4ED60E0CE0101960E94E3E00F94DC
:10440000761CBE016F5F7F4F87E297E00F945F1CC1
:104410008AE00E945A330C94B62B83E50E94A3E8ED
:10442000882311F40C94B62B0E9433E6F82E6DE02D
:1044300070E080E50E94B0E88C0197FF02C00C9408
:10444000B62B893021F4F092E1090C94B62B60E090
:1044500089E40E94CBE881110C94292E802F0F94BF
:10446000061D8111B6C50C94292E0E94F88D0C945E
:10447000B62B0E94548E0C94B62B60E070E083E55E
:104480000E94B0E88E34910531F40E94C58E0E94DE
:10449000CCF80C94B62B8AE897E00F94FE1B609141
:1044A00054047091550481E897E00F94341C609196
:1044B00056047091570484E797E00F94341C609180
:1044C0005404709155048091560490915704681BD0
:1044D000790B80918F17815021E030E0823010F00D
:1044E00020E030E0621B730B89E697E00F94341CE8
:1044F0008AE00E945A338AE897E00F94FE1B80916D
:10450000580490915904A0915A04B0915B048C8F87
:104510009D8FAE8FBF8FBE016F5F7F4FCE014C96D8
:104520000E94A4EDBE016F5F7F4F8CE597E00F9472
:104530005F1C80915C0490915D04A0915E04B09139
:104540005F048C8F9D8FAE8FBF8FBE016F5F7F4FDB
:10455000CE014C960E94A4EDBE016F5F7F4F8CE4AC
:1045600097E00F945F1C20E030E04AE754E460914C
:1045700060047091610480916204909163040F94CF
:10458000E832AB01BC0184E397E00F94411C8DE657
:104590000E945A338AE00E945A330C94B62B8091C1
:1045A000A50E83FF02C00C94B62B0F948E1487FFC8
:1045B00002C00C94B62B83E50E94A3E8882379F00F
:1045C0000E945BE60F945A33CB010E9493A60E948F
:1045D000E2AE811104C00E94548E0E94CCF80F9468
:1045E000D2230C94B62B8091A50E83FF02C00C94AD
:1045F000B62B0F948E14F82E87FF02C00C94B62BA6
:1046000083E50E94A3E8082F811106C082E50E947D
:10461000A3E8182F882381F10E945BE60F945A3398
:10462000CB010E9493A60E94E2AE882311F40C9461
:10463000372E0E94F88D6091141270911512072E7A
:10464000000C880B990B0F94FF2A4B015C014090E2
:104650001012509011126090121270901312A30158
:1046600092010F944E34181614F40C94572E002314
:1046700011F40C943D2E11E00F94D223112311F468
:104680000C94B62B602F8F2D0E941AA70C94B62B7A
:104690000F948E14182F87FD0AC08BE19EE20F94B1
:1046A000FE1B812F0E94A3A68AE00E945A33FDA51B
:1046B000F0937E030C94B92F60E080E50E94BFE880
:1046C00081110C94B62B81E40E9492E6882321F09C
:1046D0006091E10970E002C06FEF70E083E50F9434
:1046E000EA168F3F910519F010F08FEF90E080935C
:1046F000E1090C94B62B60E080E50E94BFE88111CF
:104700000C94B62B1092E1090C94B62B8EE40E9407
:10471000A3E8882311F40C94B62B0E9423E660933F
:104720001B1770931C1780931D1790931E170C94E2
:10473000B62B83E50E9492E6882331F060E083E5A2
:104740000E94BFE88093A50E0F94761C8BE997E03A
:104750000F94FE1B8091A50E882369F1ABE1EA2E30
:10476000ABE0FA2E00E010E020E08091A50E90E092
:10477000A0E0B0E0002E04C0B695A7959795879568
:104780000A94D2F780FF0EC0DD24D394D20E2223E8
:1047900019F08CE20E945A33F701859194910F949D
:1047A000FE1B2D2D0F5F1F4F32E0E30EF11C053075
:1047B0001105D9F636CD87E997E031CD10925A161A
:1047C00010921102D3C741E060E070E082EA97E006
:1047D0000F947A1CCBC783E50E94A3E8882371F06D
:1047E0000E9433E6282F30E02D3331051CF48093EE
:1047F0000002BCC78CE380930002B8C70F94761CFC
:104800004091000250E060E070E080EB97E00F9490
:10481000231C8AE00E945A33A9C78091A50E83FD0C
:10482000A5C783E50E94A3E8882379F00E945BE690
:104830000F945A336337710514F063E770E0709397
:10484000070F6093060F0E9472AE0E94E2AE8111C4
:104850008DC70E94548E0E94CCF888C70E94714D6B
:1048600085C783E50E94A3E8882309F47FC70E94D7
:1048700033E6182F90E0CD970CF01CE310937803EB
:104880000F94F5106B017C01212F30E0A8EEB3E00E
:104890000F94A231C60ED71EE81EF91EC0927403F3
:1048A000D0927503E0927603F09277035FC70F947E
:1048B0001C165CC70E94F5AE0E94548E0E94CE7AF0
:1048C0000E94EB3068EE73E080E090E00F94DA1B1A
:1048D00060E087EB97E00E9464E048C780917D0329
:1048E0008F7D806180937D0341C783E50E94A3E8AB
:1048F000882399F00E945BE620E030E04AE754E428
:104900000F945E2B0F946133609301027093020247
:10491000809303029093040229C78091931684FF29
:1049200002C00C945A2E8091951687FF02C00C94F9
:104930005A2E80919616837011F00C945A2E0C9476
:104940008B2E83E50E9492E6882309F40FC70F940B
:10495000F5106093090F70930A0F80930B0F9093DB
:104960000C0F0E945BE620E030E04AE754E40F942D
:104970005E2B0F9461336093790370937A03809375
:104980007B0390937C03F2C60F948E1487FDEEC6D2
:104990009091931694FD04C09091951697FF0AC0CC
:1049A000E0E9CE2EE2E0DE2EF6EAEF2EFEE0FF2E6C
:1049B00010E009C090919616937091F7682F81E0EE
:1049C0000F94EC17D3C6D6018D916D010E94A3E818
:1049D000882309F459C0133009F04FC00E945BE6E8
:1049E0004B015C0120E030E040EA51E40F94F82AEA
:1049F00087FF3AC0A50194016091C60E7091C70E61
:104A00008091C80E9091C90E0F94E8322B013C01A1
:104A10009B01AC016091D60E7091D70E8091D80E9B
:104A20009091D90E0F945E2B6093D60E7093D70E93
:104A30008093D80E9093D90E6091D5097091D609C4
:104A40008091D7099091D8090F94FD2AA301920172
:104A50000F945E2B0F9461336093D5097093D60940
:104A60008093D7099093D8098092C60E9092C70E72
:104A7000A092C80EB092C90E07C00E945BE6F70173
:104A8000648B758B868B978B1F5FF4E0EF0EF11CA8
:104A9000143009F098CF0E947C8F68C683EE98E0AE
:104AA0000F94FE1B60E083ED98E00E945FF760E0EA
:104AB0008EEB98E00E945FF761E080E694E20E944E
:104AC0005FF761E083EB98E00E945FF761E083EAC3
:104AD00098E00E945FF760E08AE998E00E945FF743
:104AE00061E080E998E00E945FF761E086E898E085
:104AF0000E945FF761E08EE798E00E945FF761E057
:104B000080E798E00E945FF760E082E698E00E940C
:104B10005FF760E083E598E00E945FF760E085E47E
:104B200098E00E945FF760E08FE298E00E945FF7F4
:104B300060E08EE198E00E945FF760E08FE098E02F
:104B40000E945FF760E08AEF97E00E945FF761E004
:104B500087EE97E00E945FF760E08AED97E00E94A1
:104B60005FF760E086EC97E00E945FF7FFC58091F9
:104B70008E1690918F16009709F413CBDC012C91BF
:104B8000222309F40ECB60E00E94E3E0EFC5F801B8
:104B90008081282F2B7F213499F08035E9F48181A1
:104BA00080538A30C8F498012E5F3F4F89012F5FF0
:104BB0003F4FF80180818032C9F3915041F70CC01A
:104BC0002181213349F4813421F0853461F741E0BA
:104BD000EACFFF24F394E7CF41110F94761CFF2016
:104BE00021F08AEA99E00F94FE1BC8010E94653407
:104BF000BDC50E94D4FFBAC581E08093650480934F
:104C000064040F942400B2C51092650410926404E9
:104C10000F942400ABC560E070E083E50E94B0E82B
:104C20008C011127023011053CF00F94721C8EEAA2
:104C300099E00F94FE1B9AC588E40E94A3E888239C
:104C4000A9F00E9457E68A3A91053CF08530F1E0E0
:104C50009F072CF084E091E002C08AEA90E0F8011E
:104C6000EE0FFF1FEC55F84E9183808386E40E947F
:104C7000A3E8882381F00E9457E697FD07C08F3F85
:104C8000910529F024F08FEF90E001C080E0F80159
:104C9000E256F84E808382E40E94A3E8882309F458
:104CA00065C50E9457E68530910534F0843791053B
:104CB0002CF083E790E002C085E090E0F801EE0F71
:104CC000FF1FE056F84E9183808350C50F948E14D9
:104CD000182F87FD4BC584E40E9492E68823E9F1F2
:104CE0000E945BE66B017C0101E020E030E0A9015D
:104CF0000F94F82A811101C000E000935B0920E0C5
:104D000030E0A901C701B6010F94F82A882329F1E0
:104D100024E01202F0011124E05AF64FC082D18241
:104D2000E282F38220E030E0A90160916009709195
:104D3000610980916209909163090F94F82A8111A9
:104D40000CC080E090E0A0EEBFE3809360099093F8
:104D50006109A0936209B09363090E94587A06C55D
:104D60000F948E1487FD02C550E9E52E52E0F52E12
:104D700006EA1EE0D7018D917D010E9492E688230C
:104D800059F00E945BE60F946133F80160837183F0
:104D9000828393830E94358F0C5F1F4FFEE0063B9A
:104DA0001F0741F7E3C40F948E1487FDDFC440E969
:104DB000E42E42E0F42E06EA1EE0D7018D917D013B
:104DC0000E9492E6882339F00E945BE6F80164A312
:104DD00075A386A397A30C5F1F4FFEE0063B1F073A
:104DE00061F7C4C48091941687FD98C78091951689
:104DF0008E7009F093C74091DA0E5091DB0E6091EE
:104E0000DC0E7091DD0E80ED99E00F94411C409115
:104E1000DE0E5091DF0E6091E00E7091E10E8FEC8E
:104E20009EE20F94411C4091E20E5091E30E60917E
:104E3000E40E7091E50E8EE290E30F94411C8AE03F
:104E40000E945A3393C48091931681FDADC780911F
:104E5000941681FDA9C7809195168C7009F0A4C79E
:104E600085C438E6E32E34E0F32E10E088E5810FA8
:104E70000E9492E6882359F00E945BE6D7016D9369
:104E80007D938D939C931397812F0E94D47F1F5FF6
:104E9000B4E0EB0EF11C133049F70C94DF1C83E5F2
:104EA0000E94A3E8882331F00E9457E690933802CD
:104EB000809337028091931690919416A091951645
:104EC000B0919616892B8A2B8B2B09F04FC46091D9
:104ED0003702709138028FEF99E00F94521C85E2EF
:104EE0000E945A338AE00E945A3340C40F948E14B1
:104EF000F82E87FD3BC483E50E94A3E80F2D0F2CFD
:104F0000000C110B882369F10E9457E6F801EE0F9F
:104F1000FF1FE75CFD4F91838083000F111F000F7F
:104F2000111FF801E55BFD4F7F01BC01990F880B54
:104F3000990B0F94FF2A2AE037ED43E25CE30F94CC
:104F40005E2BF801E45AF64F208131814281538172
:104F50000F945E2BD7016D937D938D939C93139744
:104F600005C40F94761C85E40E945A3380E38F0DAC
:104F70000E945A33F801EE0FFF1FE75CFD4F60817E
:104F8000718183E09AE00F94521C85E20E945A33AB
:104F90008AE00E945A33EAC380E50E9492E68823A1
:104FA00009F4E4C360E070E080E50E94B0E8F82E08
:104FB0006FEF7FEF83E50E94B0E88C0101960397C5
:104FC00008F0D4C3F7FCD2C38F2D0F94061D88239D
:104FD00039F00F94721C8BE09AE00F94FE1BC6C34D
:104FE0000E94BD7A60E08F2D0F94B60F0F3FBFEF88
:104FF0001B0731F00130110571F000E010E00DC029
:105000008F2D0F945E0F31E020E0892B09F030E006
:10501000032F122F02C001E010E08F2D0F945E0FBE
:105020008017910709F4A2C380E00E948634F5CF6F
:1050300080E50E9492E6882309F498C30E9457E60F
:105040008C01892B09F07FC083E50E9492E68823BA
:1050500089F00E9457E68F3FEFEF9E0729F484E026
:1050600093E10E94123182C3BC0184E093E10E946B
:10507000E2317CC30F94761C60E070E089E29AE034
:105080000F94521C8091061328E532E06901C81A7A
:10509000D10887FDD394CC0CDD1CCC0CDD1C0D2C71
:1050A000000CEE08FF088091051328E830E0490164
:1050B000881A910887FD9394880C991C880C991C78
:1050C000092C000CAA08BB08809104138F3FC1F083
:1050D00090E0FC01EE0FFF1F8E0F9F1FFC01E956B1
:1050E000FD4E2181328143E0220F331F4A95E1F7C3
:1050F00054E0369527955A95E1F72E5F3F4F02C051
:1051000020E030E02F5F3F4FC901330FAA0BBB0BEC
:105110009C01AD01281939094A095B09A4EBB0E0EB
:105120000F948F31A7019601281939094A095B09A3
:105130000F947031B90186EF94E20F94521C8AE00B
:105140000E945A3313C30F94721CB8018AE29AE08A
:105150000F94521C8AE19AE00F94FE1B07C38AE564
:105160000E94A3E8811105C083E50E94A3E888237B
:10517000D1F10E945BE620E030E040E050EC0F947B
:10518000F82A87FD70C60E945BE620E030E040E030
:1051900050E40F944E3418160CF45FC60E945BE680
:1051A0006B017C0180912E178695869580FF11C03A
:1051B0002091C20E3091C30E4091C40E5091C50E85
:1051C000C701B6010F945E2B0F945A33CB010F9495
:1051D000BB1B80E50E9492E6882309F44AC60E9420
:1051E00047E6811146C68091951687FD68C6809175
:1051F0009616837009F063C60F94761C4091381799
:105200005091391760913A1770913B178CE39AE0EF
:105210000F94411C8AE00E945A33609149097091B1
:105220004A0981E39AE00F94521C8AE00E945A33A3
:105230009DC264E071E083E50F94EA168C0168EE8C
:1052400073E080E50F94EA168938F3E19F0710F0C8
:1052500088E893E1B8010E9437E088C260E085E405
:105260000E94BFE8811173C080E50E9492E6882306
:1052700051F00E945BE660931712709318128093AE
:10528000191290931A1289E40E9492E6882381F001
:105290000E945BE62CEA35EC47E25EE30F945E2B5E
:1052A00060931B1270931C1280931D1290931E1218
:1052B00084E40E9492E6882381F00E945BE62CEA57
:1052C00035EC47E25EE30F94E83260931F1270936F
:1052D000201280932112909322120F94761C4091F9
:1052E0001712509118126091191270911A1285E7D5
:1052F0009AE00F94411C2CEA35EC47E25EE36091A2
:105300001B1270911C1280911D1290911E120F940D
:10531000E832AB01BC0181E79AE00F94411C2CEA12
:1053200035EC47E25EE360911F127091201280918C
:105330002112909122120F945E2BAB01BC018DE6DD
:105340009AE00F94411C8AE00E945A330FC20F94D6
:10535000721C8BE59AE00F94FE1B08C283E40E9446
:1053600092E6882321F00E9457E60E9463476091ED
:1053700081027091820289E79AE00F94521C8AE0C0
:105380000E945A33F3C183E50E9492E6182F8823C6
:1053900071F00E945BE60F945A3370935002609351
:1053A0004F0221E0672B09F020E02093F20980E50D
:1053B0000E9492E6882359F020914F0230915002CA
:1053C000232B11F00E9447E68093F209CFC11111FF
:1053D000CDC10F94761C81EA9AE00F94FE1B809158
:1053E000F209882319F087E79AE202C088E89AE078
:1053F0000F94FE1B60914F027091500280E99AE079
:105400000F94521C8CE89AE00F94FE1BAFC10E94CF
:105410007449ACC180912F1781110C94DF1C81E07D
:105420000E941F8D0C94DF1C0E9469E40E9465FF9E
:105430009DC10E94DBE69AC16FEF7FEF89E40E9475
:10544000B0E8182F6FEF7FEF8AE40E94B0E8082FD2
:105450008AE50E9492E6F82E811105C081E50E943E
:1054600092E6D82E01C0D12C17FD06C007FD04C05E
:10547000F11009C0D11007C00F94721C84EB9AE0A0
:105480000F94FE1B73C1143010F4043038F00F94E5
:10549000721C8AE696E00F94FE1B68C1E12E110F84
:1054A000FF08002E000C110B0E945BE6EE0CFF1CA7
:1054B000EE0CFF1CDD2071F0F701E00FF11FEE0F85
:1054C000FF1FEE0FFF1FE855F84E2081318142810A
:1054D000538103C020E030E0A9010E0D1F1D000F15
:1054E000111F000F111F0855184E0F94EE31D801EF
:1054F0006D937D938D939C9313970F94131936C1DD
:105500000E9420F9811132C106E21BE1EDE5F2E0D3
:10551000FDA3ECA39E012F5F3F4F190149E5C42E67
:105520004BE1D42E7901F8016591759185919491A3
:10553000ACA1BDA18D909D90AD90BD90BDA3ACA33D
:10554000A50194010F94ED312B013C01F70160831B
:1055500071838283938320E030E040EA51EC0F9422
:105560004E3487FD0AC020E030E040EA51E4C30138
:10557000B2010F94F82A18162CF4F601849118162B
:105580000CF4A3C4D7018D909D90AD90BD907D018A
:1055900020E030E040EA51ECC501B4010F944E34F4
:1055A00087FD9EC420E030E040EA51E4C501B4012B
:1055B0000F94F82A18160CF0A7C492C40E94FE5D3E
:1055C000D5C00F948101D2C00F944100CFC061E0DB
:1055D00083E50E94CBE891E089270F948F01C6C034
:1055E00081E0809391170E94966210929117882310
:1055F00009F4BCC00F94761C80E19BE00F94FE1B65
:10560000B5C08091A91482FFB1C080648093A914B1
:10561000ADC00F94B714AAC00F948E14082F87FD45
:10562000A5C085E50E9492E68823B1F1E02E002E08
:10563000000CFF080E945BE64B015C0120E030E0BB
:10564000A9010F944E3487FF04C0B7FAB094B7F89D
:10565000B094C70123E0880F991F2A95E1F79C01B8
:105660002A56384E7901D9018D929D92AD92BC9205
:10567000139720E030E042ED53E4C501B4010F94EC
:105680004E3418164CF480E090E0A2EDB3E4F7013C
:1056900080839183A283B3838CE40E9492E6882363
:1056A00009F464C0002E000C110B0E945BE66B0134
:1056B0007C0120E030E0A9010F944E3487FF04C044
:1056C000F7FAF094F7F8F09420E030E042ED53E47C
:1056D000C701B6010F944E34980193E0220F331F97
:1056E0009A95E1F7F901EA56F84E18162CF0C482A3
:1056F000D582E682F7823AC080E090E0A2EDB3E482
:1057000084839583A683B78331C00E949CEF2EC00B
:1057100081E0809367041092571660E083E50E9451
:10572000CBE8811123C00E94BDEE20C00E9406F983
:105730001DC000919016109191160023B9F00F949E
:10574000761C84E50E945A33B8017727072E000C97
:10575000880B990B0E94CE3380E20E945A338BE56E
:105760009AE00F94FE1B02C00E9406F9F8A9F111FD
:1057700002C00E94ADEE2DA520937E03FAC30E94C5
:10578000BD7A309164093FA780E00E946A710E944F
:10579000B08481E0809365040F94240088E50E9422
:1057A00092E6182F89E50E9492E6082F8AE50E946A
:1057B00092E61013F4C1181711F0012FF0C101E0A7
:1057C00011E031E03CA780E1EDE5F2E0ABE4B9E0C7
:1057D00001900D928A95E1F782E50E94A3E8882363
:1057E00069F00E945BE66B017C0120E030E0A901DA
:1057F0000F94F82A882309F43FC006C0C12CD12C8D
:1058000080EAE82E80E4F82E111103C0002309F489
:105810000EC180912E1782FD09C0609165027091C2
:105820006602809167029091680203C060E070E0B8
:10583000CB01A70196010F94EE3160935309709349
:10584000540980935509909356092091650230912F
:10585000660240916702509168020F944E34181608
:105860005CF419821A821B821C82BE016F5F7F4F1B
:1058700083E599E00E94CD85112309F4D3C000236C
:1058800009F4CDC010925D0210925E0210925F0288
:1058900010926002109261021092620210926302F2
:1058A000109264020E9463FFE9E5FBE1849189ABF9
:1058B000EDE4FBE1C590D590E590F490E1E5FBE1E6
:1058C00085909590A590B490A5019401C701B6016B
:1058D0000F944E3418162CF4A7019601C501B4019B
:1058E00004C0A5019401C701B6010F94E8322B0151
:1058F0003C01E6E3FBE185919591A591B4918CA3E0
:105900009DA3AEA3BFA3E2E3FBE185919591A59191
:10591000B49188A799A7AAA7BBA79C01AD016CA1C8
:105920007DA18EA19FA10F944E34181634F428A4A3
:1059300039A49AA59EA71BA505C02CA03DA0AEA189
:10594000AEA71FA1A3019201C301B2010F945E2B68
:1059500020E030E040E85FE30F94EE310F949C3498
:1059600091014EA5512F0F945E2B68A379A38AA3B2
:105970009BA3EAE5FBE1149120E030E040EC5FE31B
:10598000C501B4010F945E2B4B015C01612F110F17
:10599000770B880B990B0F94FF2A9B01AC01C50173
:1059A000B4010F945E2B69837A838B839C8320E000
:1059B00030E040EC5FE3C701B6010F945E2B6B0152
:1059C0007C01B9A96B2FBB0F770B880B990B0F9438
:1059D000FF2A9B01AC01C701B6010F945E2B6C8FAF
:1059E0007D8F8E8F9F8FAE01405E5F4FBE016F5FD8
:1059F0007F4FCE014C960E94AB850F9433001092DE
:105A00005D0210925E0210925F021092600210928C
:105A1000610210926202109263021092640280E0AE
:105A20000E94F47F002319F081E00E94F47FECA52E
:105A3000EE2309F4A3C080E00E94266E80912E1709
:105A40008370833051F060E08CE596E00E9464E062
:105A50000F94761C8DE496E0ADC00E9463FF4090E9
:105A60006502509066026090670270906802209113
:105A7000301730913117409132175091331760E051
:105A800070E080EE92E40F94ED316B017C01609345
:105A90004B0970934C0980934D0990934E092091C6
:105AA000341730913517409136175091371760E011
:105AB00070E080EE92E40F94ED314B015C01609355
:105AC0004F09709350098093510990935209209186
:105AD00038173091391740913A1750913B17C3014D
