:100000000C945C1A0C948D1A0C948D1A0C948D1A05
:100010000C948D1A0C948D1A0C948D1A0C948D1AC4
:100020000C948D1A0C948D1A0C948D1A0C948D1AB4
:100030000C948D1A0C948D1A0C948D1A0C948D1AA4
:100040000C948D1A0C94AE8A0C948D1A0C948D1A03
:100050000C948D1A0C948D1A0C94A0B40D9422114A
:100060000C948D1A0C9454390C944A390C948D1AB2
:100070000C948D1A0C948D1A0C948D1A0C948D1A64
:100080000C94E0320C948D1A0C948D1A0C948D1AE9
:100090000C948D1A0C948D1A0C948D1A0C948D1A44
:1000A0000C948D1A0C948D1A0C94B2320C948D1AF7
:1000B0000C948D1A0C948D1A0C948D1A0C94843215
:1000C0000C948D1A0C948D1A0C948D1A0C948D1A14
:1000D0000C948D1A0C948D1A0C948D1A0C948D1A04
:1000E0000C948D1AFBB3DEB3E1B3FEB3E4B3E7B314
:1000F000EAB3F6B3EDB309B4F0B3F3B3BDC3EFC3E2
:10010000F1C300C405C4BBC310C463013F02550161
:1001100025023D026B01B701DD0013010502D50088
:100120003901F10135016B0163020F011D015F020D
:100130004F01DF00C701EB00E90089016102D30034
:10014000FF004102F5005B02ED00E900C9014D012D
:10015000BB01084AD73B3BCE016E84BCBFFDC12F1B
:100160003D6C74319ABD56833DDA3D00C77F11BEA8
:10017000D9E4BB4C3E916BAAAABE000000803F05AB
:10018000A84CCDB2D44EB93836A9020C50B99186DC
:1001900088083CA6AAAA2ABE000000803F000C9452
:1001A0005DAD0C94D1D50D9474100D94380F0C9452
:1001B00012DB0C94D34A0C9465470D942A0F0D94CE
:1001C00046100C9424D30C94BB450C94FA400C9428
:1001D0003EAE0D94D3100D945A100D94AB100C94A8
:1001E0000CD80C945CB40C94096B0D9492100C9484
:1001F000A3D70C940EDB0C9485B10C94E8CF0D942E
:100200007E100C94D94A0C94E7B30C945E720C9453
:10021000DEB30C9499B10C94F14A0C94F6B30D949E
:10022000500F0C9495B10D94300F0C94BFCF0C94DB
:1002300084D70C94F5410C94EFD10D94540F0C9489
:1002400089B10C941E7F0C94EAD10C94AD470C94A8
:100250007DB10C9481B10C9414C30C947A6C0C9401
:10026000574C0D942B240C9456F70D94460F0C9478
:100270008B410D943E0F0C94EFC30C94F0B30C948F
:10028000F2F80D9445240C94D23E0C94E54A0C945B
:100290004F7A0C94C9CF0C94B3790D94BF100D9480
:1002A00041100C942C420C94C9390D94110F0D94EB
:1002B00010190C94E7F80C94D47B0C9480CF0C9418
:1002C0005DD70C94F3B30D941F0F0C9405C40C94DC
:1002D00090790C94E0D10D94590F0C942D410C940D
:1002E000E1B30C940ADB0C941BBF0C94203A0C94E1
:1002F00027D40C945A7D0C942F6D0C94623B0C9473
:10030000EAB30C943EC30C94C5790C94FBB30C94E3
:1003100065D70D9464100C94074D0C9420F70C9441
:10032000C9790C9476BE0C94BC790C949B390D94CD
:1003300022190C94F1C30C940CE00C9406460C9416
:1003400057BE0C94497A0C9468B40C94CECF0C949C
:10035000BDC30C945F410C94A9AF0C94034B0C9457
:10036000E6390C94B2390C9414420C94A5440D94C3
:10037000260F0C94EDB30D94C9100C943BF70C941C
:100380003ED70C94F76E0C9409B40C94FACF0D94EC
:1003900050100D94B5100C94663B0C940CDB0C942F
:1003A00043D90C940E3A0C94FF390C9410C40C945D
:1003B000E2410C944BD20C94E5D10C942B6D0C942F
:1003C000EB4A0C94FD4A0C94DF4A0C94D6D50C945D
:1003D00011420C94C83B0C94544C0C94F74A0C9466
:1003E00071F70D94420F0C94F4CF0C94C4CF0C947D
:1003F0009E410C94336D0C94B7410C9460C30C94E3
:10040000C7790C94633A0C94CA450D94340F0C943C
:1004100075B10C9479B10C9410DB0C9491B10C94DF
:10042000E4B30C94D9790C940E420C94FEB30C9462
:100430003ABD0C9405F70C94F3DF0C943C7E0C94BD
:100440002DD80C9479450C9447C20D94150F0C943B
:1004500020420C942D6D0C94EECF0C94A9BF0C94FB
:10046000A3B10C9400C40C9436D00C94BBC30C9470
:10047000143A0C949DB10C9477F70D941B0F0D94C6
:10048000220F0D9488100C94FBDA0C941A3A0C94F9
:10049000A0B10C94534C0C9478410C948DB10C94F5
:1004A000D0410C9446410C9443D20C94A5C30C94B7
:1004B000EAF60C94316D0D94A1100C94CB390D9487
:1004C0003C100D946C100D944C0F4E414E494E490A
:1004D0005459494E46CDCCCC3D0AD7233C17B7D111
:1004E0003877CC2B329595E6241FB14F0A000020B7
:1004F000410000C84200401C4620BCBE4CCA1B0E36
:100500005AAEC59D7400407A10F35A00A0724E187E
:10051000090010A5D4E80000E87648170000E40BB5
:1005200054020000CA9A3B000000E1F5050000807B
:10053000969800000040420F000000A086010000D5
:1005400000102700000000E8030000000064000025
:100550000000000A00000000000100000000002C64
:1005600076D888DC674F0823DFC1DFAE59E1B1B729
:1005700096E5E3E453C63AE651997696E8E6C284F6
:1005800026EB898C9B62ED407C6FFCEFBC9C9F400E
:10059000F2BAA56FA5F490055A2AF75C936B6CF933
:1005A000676DC11BFCE0E40D47FEF520E6B500D009
:1005B000ED902E0300943577050080841E0800001E
:1005C000204E0A000000C80C333333330F986E12EC
:1005D000831141EF8D2114893BE65516CFFEE6DBF2
:1005E00018D1844B381BF77C1D901DA4BBE424203C
:1005F0003284725E228100C9F124ECA1E53D2743DB
:100600004F4D4D554E49434154494F4E0044525968
:1006100052554E004552524F525300494E464F00DC
:100620004543484F00536C6565702E2E2E005A20AE
:1006300050726F62652050617374204265640A00D5
:100640005A2050726F626520506173742042656455
:1006500000486F6D652058592066697273740A00EE
:10066000486F6D65205859204669727374004D6556
:10067000736820706F696E742063616E6E6F742092
:100680006265207265736F6C7665640A00436C69FD
:10069000636B20746F20526573756D652E2E2E006E
:1006A0004E6F204D6F76652E00456E642066696C36
:1006B00065206C6973740A00426567696E2066691B
:1006C0006C65206C6973740A00286E6F2066696C13
:1006D00065290043757272656E742066696C653AAF
:1006E00020005344207072696E74696E67206279CD
:1006F000746520004E6F74205344207072696E74CC
:10070000696E670A0044656C6574696F6E20666186
:10071000696C65642C2046696C653A200046696CFA
:10072000652064656C657465643A005072696E7426
:100730002074696D653A20000A53746174733A201D
:1007400046696C616D656E7420757365643A20004E
:100750002C204C6F6E67657374206A6F623A2000BC
:10076000546F74616C2074696D653A20002C2046CA
:1007700061696C65643A20002C2046696E69736873
:1007800065643A20005072696E74733A20005374A5
:100790006174733A200045202553006F666600445B
:1007A000454255473A004D313132205368757464E3
:1007B0006F776E004D31313320530043522D32306C
:1007C0002050726F204F46462E004348414D42450F
:1007D000525F54454D5045524154555245004D4F7E
:1007E00054494F4E5F4D4F44455300544845524D78
:1007F000414C5F50524F54454354494F4E00415570
:10080000544F5245504F52545F53445F53544154D8
:1008100055530050524F4D50545F535550504F5206
:100820005400454D455247454E43595F5041525340
:10083000455200434153455F4C494748545F42523B
:10084000494748544E45535300544F47474C455F22
:100850004C494748545300534F4654574152455F03
:10086000504F574552004255494C445F5045524302
:10087000454E54004C4556454C494E475F44415403
:1008800041005A5F50524F4245004155544F4C452C
:1008900056454C005052494E545F4A4F4200505208
:1008A0004F4752455353004155544F5245504F52B4
:1008B000545F54454D5000564F4C554D4554524988
:1008C000430042494E4152595F46494C455F54529C
:1008D000414E534645520053455249414C5F584F93
:1008E0004E5F584F4646004649524D574152455F6C
:1008F0004E414D453A4D61726C696E20322E302E5C
:10090000352E3120284769744875622920534F5588
:100910005243455F434F44455F55524C3A687474A7
:1009200070733A2F2F6769746875622E636F6D2F2D
:100930004D61726C696E4669726D776172652F4D9B
:1009400061726C696E2050524F544F434F4C5F564A
:10095000455253494F4E3A312E30204D414348497C
:100960004E455F545950453A43522D323020507213
:100970006F2045585452554445525F434F554E548D
:100980003A3120555549443A6365646532613266AF
:100990002D343161322D343734382D396231322DD6
:1009A0006335356336326633363766660A002F2F75
:1009B00020004D31343520533C696E6465783E200B
:1009C0006F7574206F662072616E67652028302D08
:1009D00031290A00416363656C65726174696F6EE9
:1009E0003A2050003F4A206F7574206F6620726174
:1009F0006E67652028302E303120746F20302E3302
:100A0000290A0046523A0020466C6F773A2000507F
:100A1000726F7465637465642050696E0A00206F9C
:100A20007574206F662072616E67650A00205365D9
:100A300072766F2000496E76616C69642065787407
:100A400072756465720A0020643A0020693A0020D9
:100A5000703A004C434420436F6E74726173743A71
:100A600020006469730043290A0061626C65642098
:100A7000286D696E2074656D702000436F6C642072
:100A800065787472756465732061726520004D34F9
:100A9000323120696E636F727265637420706172A7
:100AA000616D657465722075736167650A004F66D4
:100AB0006673657473204170706C6965640045727B
:100AC000723A20546F6F206661722100546F6F205C
:100AD0006661722066726F6D207265666572656E02
:100AE000636520706F696E740A00454550524F4D22
:100AF000204F4B0A0020061B0614060D06FF054575
:100B000072726F722077726974696E6720746F20D9
:100B1000454550524F4D210A00627573793A207055
:100B2000617573656420666F7220696E7075740AF2
:100B300000627573793A2070617573656420666F21
:100B40007220757365720A00627573793A2070724B
:100B50006F63657373696E670A004E6F2043686543
:100B6000636B73756D2077697468206C696E65209E
:100B70006E756D6265722C204C617374204C696EC9
:100B8000653A2000636865636B73756D206D6973EA
:100B90006D617463682C204C617374204C696E65C0
:100BA0003A20004C696E65204E756D626572206951
:100BB00073206E6F74204C617374204C696E6520D5
:100BC0004E756D6265722B312C204C617374204C14
:100BD000696E653A20004D31313000534420726512
:100BE0006164206572726F720A002121204B494CAA
:100BF0004C20636175736564206279204B494C4CCD
:100C000020627574746F6E2F70696E0A0021212046
:100C10004B494C4C20636175736564206279207484
:100C20006F6F206D75636820696E616374697665A6
:100C30002074696D65202D2063757272656E742055
:100C4000636F6D6D616E643A2000363726033C3D5C
:100C5000380E2E303E121A1C1808440AFF430809A9
:100C600000014C6F6164206D6D00556E6C6F6164A6
:100C7000206D6D0046696C2E204469612E00452070
:100C8000696E206D6DC2B3004D3330332055312075
:100C90004525692053256900504944204175746FEA
:100CA00074756E65202A005049442D44202A005056
:100CB00049442D49202A005049442D50202A002023
:100CC000082046616374002008204D6178002008E8
:100CD000204D696E004175746F74656D70006874A5
:100CE00074703A2F2F6D61726C696E66772E6F7219
:100CF0006700322E302E352E31002020506C616E70
:100D00006E657242756666657242797465733A20E3
:100D1000002046726565204D656D6F72793A20003E
:100D2000436F6D70696C65643A204D617220323298
:100D300020323032300A00204C61737420557064C8
:100D4000617465643A20323032302D30332D3136C3
:100D5000207C20417574686F723A202843522D32EE
:100D6000302050726F290A00322E302E352E310A73
:100D7000004D61726C696E0020536F66747761720A
:100D8000652052657365740A002057617463686456
:100D90006F672052657365740A002042726F776E28
:100DA000206F75742052657365740A00204578744D
:100DB00065726E616C2052657365740A00506F77BE
:100DC000657255700A006175746F25632E67004D5A
:100DD000383420582D322059323235205A204500DF
:100DE000446F6E65207072696E74696E6720666903
:100DF0006C650A004D3051315331383030004D3080
:100E000051315031004D3737004D3331006572722A
:100E10006F722077726974696E6720746F206669DB
:100E20006C650A00446F6E6520736176696E672099
:100E300066696C652E0A004D323900255320256302
:100E400020256320256320256300656E6473746F1D
:100E50007073206869743A200001FFFFFFFFFFFFF5
:100E6000FFFFFFFFFFFFFF0FFFFFFFFFFFFFFFFF82
:100E7000FFFFFFFFFF1E0000000000000000000059
:100E800007FFFF380000000000000000000003FF23
:100E9000FF700000000000000000000001FFFF6084
:100EA0000000000000000000000000FFFF600000E4
:100EB0000000000000000000007FFFC000000000F4
:100EC000000000007800003FFFC00FC0FC000000E1
:100ED00000007818001FFFC03FE1FF000000000085
:100EE000783C000FFFC07FF3FF8000000000783CDB
:100EF0000007FFC0FFFFFFC000000000783C0003B8
:100F0000FFC1F87F87E00000000078000001FFC10A
:100F1000F03F03E00000000078000000FFC1E01E89
:100F200001E01F0003E0783C03F07FC1E01E01E018
:100F30007FC00FF8783C07FC3FC1E01E01E1FFE0F5
:100F40001FFC783C0FFE1FC1E01E01E3FFF03FFED7
:100F5000783C1FFE0FC1E01E01E3F3F83F3E783CF2
:100F60003F3F07C1E01E01E7E0FC7C1F783C3E1FCD
:100F700007C1E01E01E7C07C7C0F783C3C0F03C139
:100F8000E01E01E7807C780F783C3C0F03C1E01E37
:100F900001E7803C7800783C3C0F03C1E01E01E78C
:100FA000803C7800783C3C0F03C1E01E01E7803CA8
:100FB0007800783C3C0F03C1E01E01E7C03C78009C
:100FC000783C3C0F03C1E01E01E3E03C78007C3C30
:100FD0003C0F03C1E01E01E3FF3FF8007FBC3C0F64
:100FE00003C1E01E01E1FF3FF8003FBFFC0F03C15A
:100FF000E01E01E0FF3FF8001FBFFC0F03C1E01E31
:1010000001E07F3FF8000FBFFC0F0360000000000D
:101010000000000000000000076000000000000069
:10102000000000000000067000000000000000004A
:10103000000000000E38000000000000000000006A
:1010400000001C1E00000000000000000000000066
:10105000780FFFFFFFFFFFFFFFFFFFFFFFFFF00124
:10106000FFFFFFFFFFFFFFFFFFFFFFFF80000C0DF3
:1010700000FE07022603BC017FFE08FE08FE0508ED
:101080000806000040F0C88888987810050808060F
:101090000000C0F88888888888F8050505060001E2
:1010A0002030F830200508080600002070F82020C5
:1010B0002020E00509090600FF2070A8A8B888884C
:1010C0007020050606060001E08CEA8C8A0A0509F4
:1010D000090600FFF8A88888888888A8F8050A0A01
:1010E0000600FE205050505088A8A88870030303C3
:1010F00006000340A040FFFFFFFFFFFFFFFFFFFFD1
:10110000FFFFFFFFFFFFFFFFFFFFFFFF00000006E5
:1011100005FF0107070602008080808080008003B1
:101120000303060105A0A0A005060606000050F86E
:101130005050F8500509090600FF2070A8A070283B
:10114000A87020050707060000C8C810204098981E
:1011500005070706000040A0A040A890680103030F
:101160000602058080800309090601FF20404080B7
:1011700080804040200309090601FF804040202074
:101180002040408005070706000020A8702070A8B6
:10119000200505050600012020F820200203030693
:1011A00001FFC04080050101060003F802020206AB
:1011B0000100C0C0050707060000081010204040CD
:1011C00080050707060000708898A8C88870030784
:1011D0000706010040C040404040E0050707060008
:1011E00000708808102040F8050707060000F8087E
:1011F000103008887005070706000010305090F87E
:101200001010050707060000F880F0080888700530
:101210000707060000304080F08888700507070641
:101220000000F808101020202005070706000070B5
:10123000888870888870050707060000708888789D
:10124000081060020505060100C0C000C0C002060B
:10125000060601FFC0C000C040800305050601016D
:101260002040804020050303060002F800F8030533
:101270000506010180402040800507070600007038
:101280008810202000200507070600007088B8A8F5
:10129000B88070050707060000708888F88888887D
:1012A000050707060000F04848704848F0050707A2
:1012B000060000708880808088700507070600009F
:1012C000F04848484848F0050707060000F88080C5
:1012D000F08080F8050707060000F88080F0808025
:1012E00080050707060000708880809888700507D1
:1012F00007060000888888F88888880307070601A1
:1013000000E04040404040E005070706000038107C
:1013100010101090600507070600008890A0C0A07C
:101320009088050707060000808080808080F8058F
:10133000070706000088D8A8888888880507070658
:1013400000008888C8A898888805070706000070EC
:10135000888888888870050707060000F08888F06C
:1013600080808005070706000070888888A890683C
:10137000050707060000F08888F0A0908805070799
:101380000600007088807008887005070706000056
:10139000F8202020202020050707060000888888E4
:1013A000888888700507070600008888888850505C
:1013B0002005070706000088888888A8A850050728
:1013C0000706000088885020508888050707060017
:1013D0000088885020202020050707060000F80814
:1013E00010204080F80309090601FFE0808080801A
:1013F000808080E005070706000080404020101034
:10140000080309090601FFE020202020202020E019
:101410000503030600052050880501010600FEF8BB
:101420000303030601058040200505050600007042
:10143000087888780507070600008080F08888888B
:10144000F005050506000070808088700507070616
:10145000000008087888888878050505060000706F
:1014600088F08070050707060000304840E04040E3
:10147000400507070600FE70888888780870050711
:10148000070600008080F088888888030707060127
:10149000004000C0404040E00409090601FE100081
:1014A000301010101090600507070600008080883B
:1014B00090E09088030707060100C040404040408C
:1014C000E0050505060000D0A8A8A8A805050506A2
:1014D0000000B0C888888805050506000070888867
:1014E00088700507070600FEF0888888F080800570
:1014F00007070600FE78888888780808050505062D
:101500000000B0C880808005050506000078807066
:1015100008F00507070600002020F8202020180505
:1015200005050600008888889868050505060000FE
:1015300088888850200505050600008888A8A850DE
:10154000050505060000885020508805070706009D
:10155000FE88888850204080050505060000F810A8
:101560002040F80309090601FF2040404080404028
:1015700040200109090602FF8080808080808080F1
:10158000800309090601FF80404040204040408020
:1015900005030306000248A890FF42656420436FDC
:1015A0006F6C696E672E2E2E00426564204865615F
:1015B00074696E672E2E2E0023646566696E652041
:1015C00044454641554C545F004B6420004B692014
:1015D000004B702000504944204175746F74756E43
:1015E000652066696E697368656421205075742092
:1015F000746865206C617374204B702C204B6920DB
:10160000616E64204B6420636F6E7374616E7473DB
:101610002066726F6D2062656C6F7720696E746FE3
:1016200020436F6E66696775726174696F6E2E68AC
:101630000A00504944204175746F74756E652066C8
:1016400061696C6564212074696D656F75740A0049
:101650000A20436C617373696320504944200A0077
:10166000204B643A2000204B693A2000204B703A0E
:1016700020002054753A2000204B753A2000206D40
:1016800061783A2000206D696E3A200020643A208B
:101690000020626961733A2000504944204175740A
:1016A0006F74756E652073746172740A00504944DA
:1016B000204175746F74756E65206661696C656430
:1016C000212054656D706572617475726520746F48
:1016D0006F20686967680A00504944204175746F3B
:1016E00074756E65206661696C6564212042616471
:1016F000206578747275646572206E756D626572AE
:101700000A004572723A207574663820666F6E74EE
:10171000206E6F7420696E697469616C697A6564A2
:101720002E002568753A2530326875002568756485
:101730002025303268753A253032687500FFE0FFA9
:10174000D140A0C8A6A22FF80023AC00AF10FFFE26
:10175000FF05FFD0FFE0FFC1FFD1E240A0C8A6A275
:101760002FF800238127AC00AFFFD0FF64FFD1A585
:10177000FFD0FF64FF64FFD1A4FFD0FFFE20627999
:101780007465733B20637263200053657474696EE3
:1017900067732053746F726564202800454550526A
:1017A0004F4D206461746173697A65206572726F50
:1017B000722E0A002073746F7265642073657474EE
:1017C000696E677320726574726965766564202836
:1017D000004572723A20454550524F4D20435243C6
:1017E00000202863616C63756C6174656429210A4B
:1017F0000020213D2000454550524F4D204352438B
:10180000206D69736D61746368202D202873746F77
:101810007265642920004572723A20454550524F46
:101820004D20496E64657800496E6465783A200001
:101830004572723A20454550524F4D20566572739D
:10184000696F6E00204D61726C696E3D56373629A6
:101850000A00454550524F4D2076657273696F6E90
:10186000206D69736D617463682028454550524F3F
:101870004D3D000000754300006143000075435377
:10188000544F505045442E20005072696E7465725A
:101890002073746F707065642064756520746F20A8
:1018A0006572726F72732E204669782074686520A5
:1018B0006572726F7220616E6420757365204D3998
:1018C000393920746F20726573746172742E202808
:1018D00054656D70657261747572652069732072EC
:1018E000657365742E205365742069742061667475
:1018F00065722072657374617274696E67290A007B
:1019000021212053544F502063616C6C6564206228
:10191000656361757365206F6620424C546F756313
:1019200068206572726F72202D2072657374617207
:10193000742077697468204D3939390A00486F740A
:10194000656E6420746F6F20636F6C640A004D369F
:1019500030303A20546F6F20436F6C6400507265D2
:10196000737320627574746F6E20746F2072657368
:10197000756D650A00507265737320627574746FBB
:101980006E20746F2068656174206E6F7A7A6C6562
:101990000A00496E736572742066696C616D656ECC
:1019A0007420616E64207072657373206275747444
:1019B0006F6E0A005654726176204D696E00566D46
:1019C000696E00566D6178204500566D6178205A29
:1019D00000566D6178205900566D6178205800419D
:1019E0006D6178204500416D6178205A00416D613C
:1019F00078205900416D6178205800412D54726162
:101A000076656C00412D52657472616374004163A8
:101A100063656C004A756E6374696F6E2044657609
:101A20000050726F62652059204F666673657400BE
:101A300050726F62652058204F666673657400208F
:101A4000202020202020001FE02010201020101037
:101A50002010202010201030300840048003001F88
:101A6000E03FF03FF03FF01FE01FE03FF03FF03F6E
:101A7000F00FC0078003003FFFF038007030FC30EB
:101A800020FC102078102030102C00D02E31D02FC8
:101A90007BD02F7BD02E31D02C00D020301020785E
:101AA0001020FC1030FC303800703FFFF03FFFF09A
:101AB0003800703186302387102787902F87D02FEA
:101AC00003D02030102078102078102030102F0301
:101AD000D02F87D027879023871031863038007029
:101AE0003FFFF01FFFF81FFFF8041040020820021C
:101AF00008200410400820801041001041000820F8
:101B0000800410400000001FFFF81FFFF854656DAF
:101B10007065726174757265005072656865617494
:101B200020414253005072656865617420504C41F9
:101B30000046616E205370656564004E6F7A7A6C62
:101B400065004D61696E0050726568656174205072
:101B50004C41204265640050726568656174205094
:101B60004C4120456E640050726568656174204187
:101B7000425320456E64005072656865617420416F
:101B800042532042656400436F6F6C646F776E0050
:101B90004261627973746570205A00466C6F7700F9
:101BA000000000C0000030C1000000000000F04153
:101BB0000000F041000080400202040000204100CB
:101BC000002041000000400000774300006C43000B
:101BD000007543FFFFFF5761726E696E673A2048D8
:101BE0006F6D696E672042756D7020446976697308
:101BF0006F72203C20310A0024F4D43050C38E2070
:101C0000C2A24017828B7011127A910D816CD90A91
:101C1000A861E108C7586607615143061E4B5D0580
:101C2000C145A7041A411104093D980371393103D4
:101C30004036DB0265339102D4305402802E1D02FF
:101C4000632CEE01752AC501B028A001102781017F
:101C50008F2564012B244B01E0223401AC211F01AC
:101C60008D200D01801FFC00841EED00971DDF00FC
:101C7000B81CD200E61BC600201BBC00641AB200D0
:101C8000B219A8000A19A0006A189900D11791008A
:101C900040178B00B516840031167E00B31579000D
:101CA0003A157300C7146F0058146A00EE136600EB
:101CB0008813630025135E00C7125B006C12570087
:101CC00015125400C111510070114F0021114B0029
:101CD000D61049008D104700461044000210420003
:101CE000C00F4000800F3E00420F3C00060F3B003B
:101CF000CB0E3800930E37005C0E3500270E3400F3
:101D0000F30D3200C10D3100900D3000600D2E003A
:101D1000320D2D00050D2C00D90C2B00AE0C290026
:101D2000850C29005C0C2700350C27000E0C2600C2
:101D3000E80B2400C40B2400A00B23007D0B230020
:101D40005A0B2100390B2100180B2000F80A1F0044
:101D5000D90A1E00BB0A1E009D0A1D00800A1D0034
:101D6000630A1C00470A1B002C0A1B00110A1A00F8
:101D7000F7091A00DD091900C4091900AB09190097
:101D8000920917007B091800630917004C09160017
:101D900036091600200916000A091500F508150075
:101DA000E0081400CC081400B8081400A4081400BB
:101DB000900813007D0812006B08130058081200E9
:101DC00046081200340811002308110012081100FF
:101DD00001081100F0071000E0071000D007100004
:101DE000C0071000B0070F00A107100091070E00F8
:101DF00083070F0074070F0065070E0057070E00DA
:101E000049070E003B070D002E070E0020070D00AE
:101E100013070D0006070D00F9060C00ED060D0076
:101E2000E0060C00D4060C00C8060C00BC060C0032
:101E3000B0060C00A4060B0099060C008D060B00E2
:101E400082060B0077060B006C060B0061060A0089
:101E500057060B004C060A0042060A0038060A0024
:101E60002E060A0024060A001A060A0010060900B7
:101E700007060A00FD050900F4050900EB05090045
:101E8000E2050900D9050900D0050900C7050900C8
:101E9000BE050900B5050800AD050800A505090047
:101EA0009C050800940508008C05080084050800BE
:101EB0007C050800740508006C050700650508002E
:101EC0005D050700560508004E0507004705070099
:101ED0004005080038050700310507002A050700FE
:101EE000230507001C050600160507000F0507005F
:101EF0000805060002050700FB040600F5040700BC
:101F0000EE040600E8040600E2040700DB04060015
:101F1000D5040600CF040600C9040600C304060069
:101F2000BD040600B7040600B1040500AC040600B9
:101F3000A6040600A00405009B0406009504050005
:101F4000900406008A04050085040500800406004C
:101F50007A04050075040500700405006B04050093
:101F600066040500610405005C04050057040500D3
:101F7000520405004D040500480405004304050013
:101F80003E0404003A040500350405003004040052
:101F90002C04050027040400230405001E0404008B
:101FA0001A04040016040500110404000D040400C2
:101FB000090405000404040000040400FC030400F8
:101FC000F8030400F4030400F0030400EC0304002D
:101FD000E8030400E4030400E0030400DC0304005D
:101FE000D8030400D4030400D0030400CC0304008D
:101FF000C8030300C503030024F404D9201BC40C48
:102000005C0E9804C4095F0265077101F405F900CC
:10201000FB04B30048048700C1036900580355005E
:1020200003034500BE023A008402310053022A0035
:102030002902250004022000E4011C00C801190047
:10204000AF01170098011400840113007101100002
:102050006101100051010E0043010D0036010B001B
:102060002B010B0020010B00150109000C010900D8
:1020700003010800FB000800F3000800EB00070064
:10208000E4000600DE000600D8000600D2000600CC
:10209000CC000500C7000500C2000500BD0004001B
:1020A000B9000400B5000400B1000400AD00040054
:1020B000A9000400A5000300A20003009F00040083
:1020C0009B000300980003009500020093000300AA
:1020D000900003008D0002008B00030088000200C6
:1020E0008600020084000300810002007F000200DD
:1020F0007D0002007B0002007900020077000100F1
:1021000076000200740002007200010071000200FB
:102110006F0002006D0001006C0002006A00010007
:10212000690002006700010066000100650001000F
:102130006400020062000100610001006000010013
:102140005F0002005D0001005C0001005B00010017
:102150005A00010059000100580001005700010019
:10216000560001005500010054000100530000001A
:102170005300010052000100510001005000010015
:102180004F0001004E0000004E0001004D00010014
:102190004C0001004B0000004B0001004A00010010
:1021A000490001004800000048000100470001000C
:1021B0004600000046000100450000004500010007
:1021C0004400010043000000430001004200000001
:1021D00042000100410000004100010040000100F8
:1021E0003F0000003F0001003E0000003E000100F3
:1021F0003D0000003D0001003C0000003C000000EC
:102200003C0001003B0000003B0001003A000000E0
:102210003A000100390000003900010038000000D8
:1022200038000000380001003700000037000100CE
:1022300036000000360000003600010035000000C6
:1022400035000000350001003400000034000000BB
:1022500034000100330000003300000033000100AF
:1022600032000000320000003200010031000000A6
:10227000310000003100010030000000300000009B
:10228000300001002F0000002F0000002F00000090
:102290002F0001002E0000002E0000002E00010083
:1022A0002D0000002D0000002D0000002D00010079
:1022B0002C0000002C0000002C0000002C0001006D
:1022C0002B0000002B0000002B0000002B00010061
:1022D0002A0000002A0000002A0000002A00010055
:1022E000290000002900000029000000290000004A
:1022F000290001002800000028000000280000003C
:10230000280000002800010027000000270000002E
:102310002700000027000000270001002600000021
:102320002600000026000000260000002600010014
:102330002500000025000000250000002500000009
:1023400025000000250001002400000024000000FA
:1023500024000000240000002400010023000000ED
:1023600023000000230000002300000023000000E1
:1023700023000000230001002200000022000000D2
:1023800022000000220000002200000022000100C4
:1023900021000000210000002100000021000000B9
:1023A00021000000210000002100010020000000A9
:1023B000200000002000000020000000200000009D
:1023C0002000000020000000200001001F0000008D
:1023D0001F0000001F0000001F0000001F00000081
:1023E0001F0000001F0001001E0000001E00000072
:1023F0001E0000001E000000043700001E2900001F
:10240000511B00005810000010090000CC0400000F
:10241000780200004101000020746F6F206C6F6E25
:102420006720657874727573696F6E207072657657
:10243000656E7465640A0020636F6C64206578744F
:10244000727573696F6E2070726576656E746564FF
:102450000A00202F002042403A0020403A00205736
:102460003A007C3C3E5E2B3D3F2F5B5D3B2C2A229D
:102470005C004C6F61642053657474696E6773000F
:1024800053746F72652053657474696E677300507E
:10249000726F6265205A204F6666736574004164EE
:1024A00076616E6365642053657474696E6773004A
:1024B000554E4C4F41442046494C414D454E5400E9
:1024C00046494C414D454E54204348414E474500F6
:1024D000526573746F72652044656661756C7473C0
:1024E00000507265686561742041425320436F6EED
:1024F00066005072656865617420504C4120436FDE
:102500006E66004C434420436F6E747261737400B6
:10251000424C546F756368004D3730322054256447
:10252000004D36303020423020542564004D373085
:1025300032203B2564004D37303120542564004360
:102540006F6E74696E7565005075726765206D6F8A
:10255000726500524553554D45204F5054494F4EDA
:10256000533A005052494E5420504155534544006F
:1025700020204E6F7A7A6C653A2000256C642E25F7
:10258000696D00457874727564656420546F746178
:102590006C004C6F6E67657374204A6F62205469DB
:1025A0006D65003E2000546F74616C205072696E3E
:1025B000742074696D6500436F6D706C657465643B
:1025C000005072696E7420436F756E74003132353D
:1025D000004245443A4550434F53203130304B0080
:1025E00052756E617761792057617463683A204F44
:1025F0004E004D61782054656D7000323735004DC6
:10260000696E2054656D700045313A204550434F46
:1026100053203130304B005061726B696E672E2E43
:102620002E0000005761697420666F720066696C45
:10263000616D656E74206368616E676500746F20FC
:102640007374617274005761697420666F720066FA
:10265000696C616D656E7420756E6C6F61640000ED
:102660004E6F7A7A6C652068656174696E67005098
:102670006C6561736520776169742E2E2E000050A1
:102680007265737320627574746F6E00746F206866
:10269000656174206E6F7A7A6C650000496E7365AF
:1026A00072742066696C616D656E7400616E642081
:1026B000707265737320627574746F6E00746F202E
:1026C000636F6E74696E7565005761697420666F1B
:1026D000720066696C616D656E74206C6F61640078
:1026E00000507265737320427574746F6E00746F5E
:1026F00020726573756D65207072696E7400005785
:1027000061697420666F72207072696E7400746FF4
:1027100020726573756D652E2E2E000057616974E9
:1027200020666F720066696C616D656E74207075ED
:10273000726765000020436F756E7420583A00453B
:102740003100626564002C2073797374656D2073A9
:10275000746F7070656421204865617465725F49AB
:10276000443A200048656174696E67204661696C6F
:1027700065640048656174696E67206661696C65AF
:102780006400202D20496E76616C69642065787440
:102790007275646572206E756D62657220210A0023
:1027A000544845524D414C2052554E4157415900D5
:1027B000546865726D616C2052756E617761790045
:1027C0004572723A204D415854454D50004D415884
:1027D00054454D50207472696767657265640045A1
:1027E00072723A204D494E54454D50004D494E5459
:1027F000454D5020747269676765726564007001A9
:102800002C0190012701B0012201C0011D01F0013E
:1028100018011002130130020E016002090190023A
:102820000401C002FF000003FA004003F50080032A
:10283000F000D003EB002004E6007004E100E004A7
:10284000DC004005D700C005D2004006CD00D00610
:10285000C8008007C3003008BE00F008B900C009F6
:10286000B400B00AAF00B00BAA00D00CA500000E57
:10287000A000500F9B00C010960050129100001451
:102880008C00C0158700B0178200B0197D00D01BE6
:102890007800001E730040206E0090226900F02432
:1028A000640040275F0090295A00E02B5500102E4D
:1028B000500020304B0010324600E033410090358C
:1028C0003C001037370070383200A0392D00B03A84
:1028D0002800A03B2300603C1E00103D1900903DE5
:1028E0001400103E0F00703E0A00C03E0500003F7D
:1028F0000000403FFBFF803FF6FFC03FF1FF436F0A
:102900006E66696775726174696F6E005053550029
:1029100047656E657269630050726F746F636F6CA8
:1029200000312E3000426175640031313532303073
:102930000052414D505320312E340042696C696E73
:10294000656172204C6576656C696E6700457874C8
:102950007275646572730043522D32302050726F6D
:1029600000323032302D30332D3136005072696EE6
:1029700074657220537461747300546865726D6974
:1029800073746F727300426F61726420496E666F78
:10299000005072696E74657220496E666F005374E0
:1029A0006F70004368616E67652046696C616D6594
:1029B0006E74005072656865617420437573746F3E
:1029C0006D004261636B004D3231004368616E6798
:1029D00065204D656469610041626F7574205072B5
:1029E000696E746572004D36303020423000526599
:1029F00073756D65205072696E74004E6F204D6561
:102A00006469610054756E650053746F7020507274
:102A1000696E7400496E666F2053637265656E005F
:102A20002053697A653A20004D32332025730046E1
:102A3000696C652073656C65637465640A0046693A
:102A40006C65206F70656E65643A2000454E4420C9
:102A5000535542524F5554494E450A002220706F3B
:102A600073002220706172656E743A2200535542E1
:102A7000524F5554494E452043414C4C207461728D
:102A80006765743A2200747279696E6720746F20EA
:102A900063616C6C207375622D67636F646520667B
:102AA000696C6573207769746820746F6F206D613D
:102AB0006E79206C6576656C732E204D4158206CC4
:102AC0006576656C2069733A310A005772697469DA
:102AD0006E6720746F2066696C653A2000667265C7
:102AE000736800646F696E67004E6F7720006F70C7
:102AF000656E206661696C65642C2046696C653A78
:102B0000200020453A00205A3A0020593A003F0060
:102B100043616E63656C004F6666004F6E004D6FDB
:102B200074696F6E004175746F20486F6D65005356
:102B300074617274205072696E740043616E6E6FBE
:102B40007420656E746572207375626469723A20D0
:102B500000022E2E00536F667420456E6473746FEE
:102B60007073004D38340044697361626C652053A2
:102B70007465707065727300473238004573746510
:102B800070732F6D6D005A73746570732F6D6D00C7
:102B90005973746570732F6D6D005873746570731D
:102BA0002F6D6D00496E6974004D34323800496EE6
:102BB000697469616C697A6520454550524F4D00D2
:102BC00053746570732F6D6D0050726F6265204F86
:102BD000666673657473004A65726B004163636572
:102BE0006C65726174696F6E0056656C6F636974B1
:102BF000790053657420486F6D65204F6666736574
:102C00007473004E65787420506F696E7400446F61
:102C10006E65004E65787400486F6D696E67205868
:102C2000595A005A2056616C756500496E64657882
:102C3000205900496E6465782058005061757365AD
:102C4000205072696E74004D656469612052656D33
:102C50006F766564004D6564696120496E736572C5
:102C6000746564005072696E742041626F7274659D
:102C700064004D323520500A4D3234004F46460A2A
:102C80000046616465204865696768742000426594
:102C900064204C6576656C696E6720004661696CDE
:102CA000656420746F20656E61626C6520426564A6
:102CB000204C6576656C696E670A00496E76616CBA
:102CC0006964206D6573682E0A0050726F62696EC8
:102CD0006720506F696E740025532025692F256980
:102CE0000050726F62696E67206D65736820706F47
:102CF000696E742000202844525952554E290047CD
:102D00003239204175746F20426564204C657665C8
:102D10006C696E67003F20284C2C522C462C4229AF
:102D2000206F7574206F6620626F756E64732E0A53
:102D3000003F2856296572626F7365206C65766561
:102D40006C20696D706C61757369626C65202830E8
:102D50002D34292E0A00426164205A2076616C7558
:102D6000650A004E6F2062696C696E65617220674A
:102D70007269640A004361703A0047322F4733207A
:102D800062616420706172616D65746572730A00BE
:102D90003F5A206F7574206F662072616E676520E0
:102DA00028003F59206F7574206F662072616E672E
:102DB0006520282D0020746F20003F58206F757407
:102DC000206F662072616E676520282D0050726F3B
:102DD0006265204F6666736574205800656E717574
:102DE000657565696E672022006F6B0052657365BB
:102DF0006E643A2000256979202569642025696878
:102E00002025696D20256973004C6576656C20432B
:102E10006F726E657273004661646520486569670C
:102E200068740045646974204D65736800473238E2
:102E30000A473239004C6576656C20426564004370
:102E40006D643A2053746F7700436D643A20535792
:102E50002D4D6F646500436D643A204465706C6F5E
:102E60007900436D643A2053656C662D5465737424
:102E700000436D643A205265736574005072696E48
:102E8000742066726F6D204D6564696100205A3A46
:102E9000200020593A200042656420583A20005012
:102EA00072696E74205061757365640050726F6250
:102EB000696E67204661696C65640A0050726F62D2
:102EC000696E67204661696C656400486F6D6520B6
:102ED00025732573257320466972737400220A00D6
:102EE000556E6B6E6F776E20636F6D6D616E643AB9
:102EF00020220043522D32302050726F20526561E3
:102F000064792E005072696E74696E672E2E2E00E1
:102F100020520048617264636F6465642044656692
:102F200061756C742053657474696E6773204C6F9F
:102F3000616465640A003B200020204D3630332058
:102F40000020550046696C616D656E74206C6F6180
:102F5000642F756E6C6F6164206C656E6774687346
:102F60003A0020204D3835312058005A2D50726FCC
:102F70006265204F66667365740020204D323530DF
:102F80002043004C434420436F6E74726173743A63
:102F90000020204D333031205000504944207365CB
:102FA0007474696E67733A00204600204800202040
:102FB0004D3134352053004D6174657269616C2068
:102FC00068656174757020706172616D6574657299
:102FD000733A002020473239205720490020204DE5
:102FE0003432302053004175746F20426564204CA8
:102FF0006576656C696E673A0020204D3230362068
:103000005800486F6D65206F66667365743A0020DE
:103010004A0020204D323035204200416476616EF6
:103020006365643A20423C6D696E5F7365676D65E8
:103030006E745F74696D655F75733E20533C6D6996
:103040006E5F66656564726174653E20543C6D69AF
:103050006E5F74726176656C5F66656564726174DB
:10306000653E204A3C6A756E635F6465763E00206B
:10307000540020204D323034205000416363656C91
:1030800065726174696F6E2028756E6974732F7331
:1030900032293A20503C7072696E745F61636365D7
:1030A0006C3E20523C726574726163745F6163634D
:1030B000656C3E20543C74726176656C5F6163633D
:1030C000656C3E0020204D3230312058004D617833
:1030D000696D756D20416363656C65726174696FBC
:1030E0006E2028756E6974732F7332293A00202080
:1030F0004D3230332058004D6178696D756D206612
:1031000065656472617465732028756E6974732FC8
:1031100073293A0053746570732070657220756E60
:1031200069743A0020204D3230302044300A0020AB
:10313000204D3230302044002044697361626C6558
:10314000640A0046696C616D656E74207365747401
:10315000696E67733A0020204D3134392043203B9B
:1031600020556E69747320696E2043656C736975B0
:10317000730A0020286D6D2900202047323120205D
:1031800020203B20556E69747320696E206D6D00A0
:10319000486F6D696E67204661696C6564006F7089
:1031A000656E00545249474745524544007A5F6D69
:1031B000696E00795F6D696E00785F6D696E0052AF
:1031C00065706F7274696E6720656E6473746F707A
:1031D000207374617475730A000000FA430000FAEA
:1031E000430000A0400000C8410000A0420000A031
:1031F000420000C8430000C242F4010000F4010094
:1032000000640000008813000043616E6E6F74203C
:103210006F70656E2073756264697220005344207C
:1032200063617264206F6B0A006F70656E526F6F1E
:1032300074206661696C65640A00766F6C756D65F3
:103240002E696E6974206661696C65640A00534476
:1032500020696E6974206661696C0A0000002100B3
:10326000240027002A002D00300033000101000057
:10327000040107010A0100002200250028002B009C
:103280002E003100340002010000050108010B018D
:10329000000020002300260029002C002F0032000F
:1032A00000010000030106010901050505050705E8
:1032B00008080808020202020A0A080804040404B2
:1032C00001010101010101010303030303030303DE
:1032D000040707070C0C0C0C0C0C0C0C020202026D
:1032E00006060606060606060B0B0B0B0B0B0B0B56
:1032F0000102102020080810204010204080020108
:1033000002010804020101020408102040808040EC
:1033100020100804020180040201804020100804EB
:103320000201080402010102040810204080010289
:1033300004081020408000000A0B02090C0D0E0842
:10334000070304010000000000000000000000006E
:10335000000000000000000000000000000000006D
:10336000000012111000000000000000000000002A
:103370000000000000000000000000004D6F7665B6
:103380002025736D6D004D6F766520302E316D6D8B
:10339000004D6F766520316D6D004D6F7665203183
:1033A000306D6D004D6F7665204178697300486F10
:1033B00074656E6420746F6F20636F6C6400457871
:1033C000747275646572004D6F7665205A004D6F9A
:1033D00076652059004D6F7665205800204D3932B2
:1033E00020580020204D61783A200020204D696E41
:1033F0003A2000536F667420656E6473746F707347
:103400003A200020496E76616C6964206578747298
:10341000756465722000506C656173652052657338
:103420006574005052494E5445522048414C544511
:10343000440025533A202553004B494C4C45442E1B
:1034400020005072696E7465722068616C746564E6
:103450002E206B696C6C28292063616C6C6564217B
:103460000A006563686F3A004572726F723A0042F3
:10347000696C696E656172204C6576656C696E6712
:1034800020477269643A0A00537562646976696418
:1034900065642077697468204341544D554C4C2035
:1034A000524F4D204C6576656C696E672047726996
:1034B000643A0A004101310111241FBECFEFD1E26D
:1034C000DEBFCDBF00E00CBF13E0A0E0B2E0E0E360
:1034D000FBE602E00BBF02C007900D92A437B107D4
:1034E000D9F728E1A4E7B3E001C01D92A132B207E9
:1034F000E1F71AE1CBE5DAE100E006C02197010926
:10350000802FFE010F94E731CA35D10780E008070C
:10351000A9F70F942D1D0D9486350C9400002F9261
:103520003F924F925F926F927F928F929F92AF9253
:10353000BF92CF92DF92EF92FF920F931F93CF93A0
:10354000DF93CDB7DEB7E1970FB6F894DEBF0FBEBD
:10355000CDBF88AB20917E032DA781E080937E03B1
:1035600080919E168D3409F449C3843511F40C946E
:10357000752B873411F00C94902B20919C16309170
:103580009D162B31310509F48DC09CF42430310592
:1035900034F422303105CCF537FF2BC02BC3243057
:1035A000310509F440C02531310511F40C94922BFA
:1035B00021C32A32310509F4F6C15CF42D313105FD
:1035C00009F49AC00CF488C02E31310509F4A8C062
:1035D00011C32B35310509F463C12C35310509F4CC
:1035E00064C12A35310509F005C310927D030C949E
:1035F000922B80912604813011F00C94922B0F9421
:10360000D2130E9497860C94922B809126048130CD
:1036100011F00C94922B2230310509F080E00E94C9
:10362000ADF10C94922B80E50E94F9E7882329F0F4
:103630000F9448186B017C0103C0C12CD12C76017A
:1036400083E50E94F9E7882361F00E94B1E520E05C
:1036500030E04AE754E40F94602B0F9463336B011E
:103660007C010E94837F80910E16811105C060E06D
:1036700085E296E00E94BADF0F941611C60ED71E9F
:10368000E81EF91E0F941611DC01CB018C199D095F
:10369000AE09BF09B7FD02C00C94922B80E00E94D6
:1036A0003A34F0CF0E9426FE81110C94922B8CE0CC
:1036B000E4E8F2E0DE01119601900D928A95E1F7BF
:1036C00060E070E080E50F940B17BE016F5F7F4FE5
:1036D0000E948DDE0C94922B809148178770873062
:1036E00011F00C949B2B60E08FE40E9421E8811183
:1036F0000C94922B0C949B2B0E9426FE81110C940F
:10370000922B80917209882311F40C94B92D60E0FA
:103710008FE40E9421E881110C94922B0C94B92D16
:1037200020913C1730913D1740913E1750913F1723
:1037300060915D0270915E0280915F0290916002E3
:103740000F94F031AB01BC0188E50E9445506983BC
:103750007A838B839C83209140173091411740914D
:1037600042175091431760916102709162028091FB
:103770006302909164020F94F031AB01BC0189E5C2
:103780000E9445506D837E838F839887BE016B5F57
:103790007F4FCE0101960E94C8E3882311F40C9458
:1037A000922B80E00E949B690E94728961E085E40F
:1037B0000E9421E821E0482FBE016B5F7F4FCE01C0
:1037C00001960E947CFE6B017C019B01AC010F9471
:1037D000E23481115FC089809A80AB80BC8020E098
:1037E00030E0A901C501B4010F94FA2A87FF05C092
:1037F00027E137EB41E558EB04C027E137EB41E522
:1038000058E3C501B4010F94F031AB01BC0187E965
:103810009EE20F94431C8D809E80AF80B88420E090
:1038200030E0A901C501B4010F94FA2A87FF05C051
:1038300027E137EB41E558EB04C027E137EB41E5E1
:1038400058E3C501B4010F94F031AB01BC0182E92A
:103850009EE20F94431C20E030E0A901C701B601AD
:103860000F94FA2A87FF05C067E177EB81E598EBB3
:1038700004C067E177EB81E598E3A70196010F9417
:10388000F031AB01BC018DE89EE20F94431C8AE04D
:103890000E940E330E9459890F946B040C94922B52
:1038A0008FE080937D030C94922B90E9292E92E077
:1038B000392E2DE4E22E29E0F22E2DE532E03DA353
:1038C0002CA33DEFC32E31E1D32E00E010E0D10157
:1038D0008D911D010E94F9E7882309F44BC00E94D5
:1038E000B1E52B013C01133049F0F6012081318113
:1038F000428153810F94EF312B013C01ACA1BDA15A
:103900002D913D914D915C91C301B2010F94EF3126
:103910004B015C012DEB37E346E855EB0F94503437
:1039200087FD0AC02DEB37E346E855E3C501B40136
:103930000F94FA2A1816F4F4133051F440926902E5
:1039400050926A0260926B0270926C0201E012C0A7
:10395000A5019401F70160817181828193810F94A7
:10396000F031D7016D937D938D939C931397812FA5
:103970000E949A841F5FB4E0EB0EF11CECA1FDA144
:103980003496FDA3ECA3F4E0CF0ED11C143009F063
:103990009ECF002321F089E692E00E9456820F9488
:1039A0006B040C94922B80912604813011F00C94BE
:1039B000922B89E40E94F9E7E82E882321F00E94E7
:1039C000ADE5082F01C000E08AE40E94F9E7F82E77
:1039D000882321F00E94ADE5182F01C010E0EE20F1
:1039E00011F0043020F4FF2041F0143030F08EE666
:1039F00096E00F94001C0C94922B80E1EDE5F2E030
:103A0000A9E5B9E001900D928A95E1F7EE2019F150
:103A1000602F000F770B880B990B0F94012B2091CF
:103A200006063091070640910806509109060F944A
:103A3000602B2091FE053091FF05409100065091CA
:103A400001060F94F0316093590970935A098093DD
:103A50005B0990935C09FF2019F1612F110F770B1F
:103A6000880B990B0F94012B20910A0630910B06BD
:103A700040910C0650910D060F94602B2091020688
:103A80003091030640910406509105060F94F031E1
:103A900060935D0970935E0980935F09909360095C
:103AA00060E080E50E9421E88823C1F1EE20D1F09A
:103AB00020913C1730913D1740913E1750913F1790
:103AC0006091590970915A0980915B0990915C0944
:103AD0000F94EF316093590970935A0980935B09F1
:103AE00090935C09FF20D1F020914017309141174D
:103AF000409142175091431760915D0970915E09A2
:103B000080915F09909160090F94EF3160935D0996
:103B100070935E0980935F099093600940E050E0E4
:103B2000BA0186E40E9445506B017C0120E030E040
:103B3000A9010F94503418165CF420E030E040E7FF
:103B400052E4C701B6010F94EA326B017C0103C055
:103B5000C12CD12C760180907D0290907E02A090A5
:103B60007F02B090800220E030E0A901C701B601D9
:103B70000F94FA2A882341F0C0927D02D0927E02EF
:103B8000E0927F02F0928002009137021091380299
:103B900084E690E09093380280933702C0904B0205
:103BA000D0904C02E0904D02F0904E0280E090E008
:103BB000A0E8BFE380934B0290934C02A0934D0288
:103BC000B0934E020E94978680927D0290927E0270
:103BD000A0927F02B09280021093380200933702C5
:103BE000C0924B02D0924C02E0924D02F0924E02F3
:103BF0000C94922B0E940CFE0C94922B80919C169C
:103C000090919D168737910509F4E3C70CF0DEC04B
:103C10008D34910509F41DC40CF05DC08931910506
:103C200009F4B3C21CF58431910509F43EC27CF459
:103C30008131910509F425C22CF4029708F4BEC124
:103C40000C94722B429709F440C60C94722B863167
:103C5000910509F44FC20CF449C28731910509F46A
:103C600052C2489709F464C20C94722B8E319105AC
:103C700009F4FFC2ACF48B31910509F49FC20CF436
:103C80008FC28C31910509F4ECC24D9711F00C9460
:103C9000722B8091B0148E7F8093B0140C94922B71
:103CA0008A32910509F4A9C34CF48F31910509F4C6
:103CB00084C3809709F43EC30C94722B8B34910516
:103CC00009F4C3C38C34910511F00C94722B0E943B
:103CD00028DB0C94922B8B36910509F4FCC4D4F5A7
:103CE0008435910509F4F1C5E4F48135910509F4B1
:103CF000D1C534F48E34910509F4AFC30C94722B02
:103D00008235910509F4DAC58335910511F00C94DB
:103D1000722B80917D038F7E806280937D030C9453
:103D2000922B8836910509F42AC454F485359105FF
:103D300009F4F7C58C35910509F416C60C94722B5D
:103D40008936910509F494C48A36910509F4A4C40E
:103D50000C94722B8037910509F425C584F48D36B7
:103D6000910509F430C40CF419C58E36910509F497
:103D7000BDC48F36910509F4CCC40C94722B8337E3
:103D8000910509F47BC68CF48137910509F413C5BC
:103D90008237910511F00C94722B0E94C9CB87E2F7
:103DA00093E10E94D2BC0C94922B8537910509F4C3
:103DB000CEC68637910511F00C94722B00919A169D
:103DC00010919B1694E0F12C40E0E7C68C3221E084
:103DD000920711F40C94F5280CF069C08B3C910506
:103DE00009F4D1C754F58139910509F404C784F465
:103DF0008937910509F4F8C60CF4EEC68D379105A4
:103E000009F445C58C38910509F4F7C40C94722B5C
:103E10008E3B910509F412C534F48B39910509F4F0
:103E200010C50C94722B883C910509F43FC7893C5E
:103E3000910509F485C70C94722B8C3D910511F402
:103E40000C944227ACF48D3C910511F40C94162788
:103E50000CF4BBC78E3C910511F40C942427833DD0
:103E6000910511F00C94722B0F941E170C94922B49
:103E70008A3F910511F40C948A2964F48D3D9105D3
:103E800011F40C946927823E910511F40C94BF271C
:103E90000C94722B8831A1E09A0711F40C940B2832
:103EA0008232914011F40C94A2280C94722B843F1E
:103EB000E1E09E0711F40C94BA2A0CF042C081395B
:103EC00021E0920711F40C94E629C4F48E32A1E0AB
:103ED0009A0711F40C949F2914F40C940A298F3238
:103EE000E1E09E0711F40C94E3298039914011F030
:103EF0000C94722B0E94837F0C94922B843A21E0C5
:103F0000920711F40C94F5297CF48239A1E09A0708
:103F100011F40C94F0298A39914011F00C94722B11
:103F20000E947A300C94922B853AE1E09E0711F4BE
:103F30000C94F8298C3A914011F40C945C2A0C945E
:103F4000722B8C3022E0920711F40C94DD2AB4F429
:103F5000863FA1E09A0711F40C94C02A14F40C9443
:103F6000BD2A873FE1E09E0711F40C94C32A883FE5
:103F7000914011F40C94CC2A0C94722B833523E0DD
:103F8000920711F40C94612B6CF48835A2E09A0727
:103F900011F40C94E52A8B35924011F40C94E82A24
:103FA0000C94722B803AE3E09E0709F4F8C1873E37
:103FB000934011F40C94642B0C94722B80E50E94B6
:103FC000F9E7882329F00F9448186B017C0103C09E
:103FD000C12CD12C760183E50E94F9E7882361F09A
:103FE0000E94B1E520E030E04AE754E40F94602BF2
:103FF0000F9463336B017C010E94837F81E50E94F3
:10400000E8E5182F80919A1690919B16009721F061
:1040100061E00E9439E007C0111105C060E08DE841
:1040200096E00E94BADF00917E0383E080937E03D6
:1040300081E080936616C114D104E104F10431F0EB
:104040000F941611C60ED71EE81EF91E8091661633
:10405000882311F40C94C12DC114D104E104F1049E
:1040600011F40C94BC2D0F941611DC01CB018C19AA
:104070009D09AE09BF09B7FF02C00C94BC2D0C947A
:10408000C12D80919F1684FF02C00C94CA2D80918F
:10409000A11687FF02C00C94CA2D8091A2168370CE
:1040A00011F00C94CA2D0C94E62D88EB96E00F9439
:1040B000001C83E892E10E942FA68BE1E3E8F2E185
:1040C000DE01119601900D928A95E1F760E070E0B3
:1040D000CE0101960F94100ECE0101960E9434A6D7
:1040E00089EA96E00F94001C0C94922B0F9482099D
:1040F0000C94922B0E944EC78091B014877F8093BE
:10410000B0140C94922BE0919A16F0919B1680813A
:10411000882329F0803209F410823196F8CF60E0CC
:1041200080919A1690919B160E94ADC70C94922B89
:104130008091740F8823E9F080E090E0A8E4B2E475
:1041400088A399A3AAA3BBA31C8E1D8E1E8E1F8EAF
:1041500019821A821B821C8220E0AE01405E5F4FF2
:10416000BE01645E7F4FCE0101960E9426620C94D0
:10417000922B0E94A230882321F00E94CCC80E947A
:10418000BA920E94D2FD0C94922B8091B01482FFBF
:1041900003C08B7F8093B0140F943D160C94922B28
:1041A0008091B01483FD02C00C94922B83E50E9491
:1041B000F9E781110C94F42D0C94922B83E40E9466
:1041C000E8E5882319F183ED96E00F94001C8091B7
:1041D0002D12882391F0BE016F5F7F4F8AE292E13A
:1041E0000E94F6A48E010F5F1F4FD8018D918D01A3
:1041F000882339F00E940E33F8CF89EC96E00F94B3
:10420000001C8AE00E940E330C94922B8091B01413
:1042100082FF21C082EE96E00F94001C6091AC14E6
:104220007091AD148091AE149091AF144AE00E9449
:1042300015338FE20E940E336091A8147091A91477
:104240008091AA149091AB144AE00E9415330E9409
:1042500013340C94922B84EF96E00F94001C0C9472
:10426000922B80919A1690919B160E945FC70C9496
:10427000922B8091B01483FD02C00C94922B0E946B
:10428000F5FD8091B01483FD02C00C94922B4091F7
:104290009A1650919B16BE01645E7F4F80E00E948B
:1042A00016CD8C01009711F40C94922B6C8D7D8DA2
:1042B00019821C8222E0AC01CE0101960E9464AA00
:1042C000811102C0F12C14C0CE0101960E9484CC51
:1042D0008823C1F361E0CE0101960E94DAA4009721
:1042E00089F325EEFC0120831C820F94D40AF82E5A
:1042F000CE0101960E9434A6B801FF2089F08DE11D
:1043000097E00F94611C8AE00E940E331092AC1467
:104310001092AD141092AE141092AF140C94922B14
:1043200085E097E00F94611C83E59DE20F94001CEB
:104330000C94922B8091B01482FD0E94837F809117
:10434000B01483FD02C00C94922B60E080E50E94C3
:1043500021E8182F682F80919A1690919B160E9441
:10436000ADC783E50E94F9E7882381F00E9479E5D3
:10437000AB01BC014093AC145093AD146093AE14E8
:104380007093AF148AE292E10F94FA0C0E94CCC8A9
:1043900011110C94922B0E94BA920C94922B2091A2
:1043A0009A1630919B169091B01492609093B0142D
:1043B000C9010E945FC70C94922B0E94D9606C8F38
:1043C0007D8F8E8F9F8FBE016F5F7F4FCE014C968A
:1043D0000E94FAEC60E0CE0101960E9439E00F9451
:1043E000781CBE016F5F7F4F8BE297E00F94611CDA
:1043F0008AE00E940E330C94922B83E50E94F9E729
:10440000882311F40C94922B0E9489E5F82E6DE01C
:1044100070E080E50E9406E88C0197FF02C00C94D2
:10442000922B893021F4F092EF090C94922B60E0EA
:1044300089E40E9421E881110C94052E802F0F94AD
:10444000081D8111B9C50C94052E0E94BA920C94D6
:10445000922B0E9416930C94922B60E070E083E5FF
:104460000E9406E88E34910531F40E9487930E94E1
:10447000D2FD0C94922B8EE897E00F94001C609173
:1044800013047091140485E897E00F94361C609132
:1044900015047091160488E797E00F94361C60911C
:1044A0001304709114048091150490911604681BF4
:1044B000790B80919B17815021E030E0823010F021
:1044C00020E030E0621B730B8DE697E00F94361C02
:1044D0008AE00E940E338EE897E00F94001C8091D2
:1044E000170490911804A0911904B0911A048C8FAC
:1044F0009D8FAE8FBF8FBE016F5F7F4FCE014C96F9
:104500000E94FAECBE016F5F7F4F80E697E00F9448
:10451000611C80911B0490911C04A0911D04B0911A
:104520001E048C8F9D8FAE8FBF8FBE016F5F7F4F3C
:10453000CE014C960E94FAECBE016F5F7F4F80E582
:1045400097E00F94611C20E030E04AE754E460916A
:104550001F047091200480912104909122040F94F3
:10456000EA32AB01BC0188E397E00F94431C8DE66F
:104570000E940E338AE00E940E330C94922B80919D
:10458000B30E83FF02C00C94922B0F94AF1487FFDD
:1045900002C00C94922B83E50E94F9E7882379F0FE
:1045A0000E94B1E50F945C33CB010E9455AB0E9491
:1045B000D8B4811104C00E9416930E94D2FD0F94BA
:1045C000FB230C94922B8091B30E83FF02C00C94BA
:1045D000922B0F94AF14F82E87FF02C00C94922BED
:1045E00083E50E94F9E7082F811106C082E50E9449
:1045F000F9E7182F882381F10E94B1E50F945C330D
:10460000CB010E9455AB0E94D8B4882311F40C94BE
:10461000132E0E94BA9260911B1270911C12072EE9
:10462000000C880B990B0F94012B4B015C014090FF
:104630001712509018126090191270901A12A3015C
:1046400092010F945034181614F40C94332E002356
:1046500011F40C94192E11E00F94FB23112311F483
:104660000C94922B602F8F2D0E94DCAB0C94922B1C
:104670000F94AF14182F87FD0AC089EE9DE20F94A6
:10468000001C812F0E9465AB8AE00E940E33FDA5BD
:10469000F0937E030C946D2F60E080E50E9415E896
:1046A00081110C94922B81E40E94E8E5882321F08B
:1046B0006091EF0970E002C06FEF70E083E50F9446
:1046C0000B178F3F910519F010F08FEF90E080935A
:1046D000EF090C94922B60E080E50E9415E88111AF
:1046E0000C94922B1092EF090C94922B8EE40E9462
:1046F000F9E7882311F40C94922B0E9479E56093DA
:104700002717709328178093291790932A170C94D2
:10471000922B83E50E94E8E5882331F060E083E591
:104720000E9415E88093B30E0F94781C8FE997E0F0
:104730000F94001C8091B30E882369F185EFE82E59
:104740008AE0F82E00E010E020E08091B30E90E0C7
:10475000A0E0B0E0002E04C0B695A7959795879588
:104760000A94D2F780FF0EC0DD24D394D20E222308
:1047700019F08CE20E940E33F701859194910F9409
:10478000001C2D2D0F5F1F4F32E0E30EF11C053092
:104790001105D9F636CD8BE997E031CD109266162A
:1047A00010921102BFC741E060E070E086EA97E036
:1047B0000F947C1CB7C783E50E94F9E7882371F04A
:1047C0000E9489E5282F30E02D3331051CF48093B9
:1047D0000002A8C78CE380930002A4C70F94781C42
:1047E0004091000250E060E070E084EB97E00F94AD
:1047F000251C8AE00E940E3395C78091B30E83FD7D
:1048000091C783E50E94F9E7882379F00E94B1E51A
:104810000F945C336337710514F063E770E07093B5
:10482000150F6093140F0E9468B40E94D8B48111D0
:1048300079C70E9416930E94D2FD74C70E945954F2
:1048400071C783E50E94F9E7882309F46BC70E94CA
:1048500089E5182F90E0CD970CF01CE310937803B6
:104860000F9416116B017C01212F30E0A8EEB3E00C
:104870000F94A431C60ED71EE81EF91EC092740311
:10488000D0927503E0927603F09277034BC70F94B2
:104890003D1648C70E94EBB40E9416930E94947F75
:1048A0000E949F3068EE73E080E090E00F94DC1B84
:1048B00060E08BEB97E00E94BADF34C780917D0304
:1048C0008F7D806180937D032DC783E50E94F9E78A
:1048D000882399F00E94B1E520E030E04AE754E4F3
:1048E0000F94602B0F946333609301027093020264
:1048F000809303029093040215C780919F1684FF52
:1049000002C00C94362E8091A11687FF02C00C9431
:10491000362E8091A216837011F00C94362E0C94D2
:10492000672E83E50E94E8E5882309F4FBC60F940F
:1049300016116093170F7093180F8093190F9093AF
:104940001A0F0E94B1E520E030E04AE754E40F94EA
:10495000602B0F9463336093790370937A03809391
:104960007B0390937C03DEC60F94AF1487FDDAC6F9
:1049700090919F1694FD04C09091A11697FF0AC0D4
:1049800010E9C12E12E0D12E04EBE02E0EE0F02E45
:1049900010E009C09091A216937091F7682F81E002
:1049A0000F940D18BFC6D6018D916D010E94F9E7D5
:1049B000882309F459C0133009F04FC00E94B1E5B3
:1049C0004B015C0120E030E040EA51E40F94FA2A08
:1049D00087FF3AC0A50194016091D40E7091D50E65
:1049E0008091D60E9091D70E0F94EA322B013C01A4
:1049F0009B01AC016091E40E7091E50E8091E60E92
:104A00009091E70E0F94602B6093E40E7093E50E87
:104A10008093E60E9093E70E6091E3097091E409AC
:104A20008091E5099091E6090F94FF2AA301920174
:104A30000F94602B0F9463336093E3097093E40940
:104A40008093E5099093E6098092D40E9092D50E5A
:104A5000A092D60EB092D70E07C00E94B1E5F70122
:104A6000648B758B868B978B1F5FF4E0EF0EF11CC8
:104A7000143009F098CF0E943E9454C687EE98E017
:104A80000F94001C60E087ED98E00E94B5F660E0AE
:104A900082EC98E00E94B5F661E089EB9BE20E940F
:104AA000B5F661E087EB98E00E94B5F661E087EA31
:104AB00098E00E94B5F660E08EE998E00E94B5F6B5
:104AC00061E084E998E00E94B5F661E08AE898E048
:104AD0000E94B5F661E082E898E00E94B5F661E0D8
:104AE00084E798E00E94B5F660E086E698E00E94D0
:104AF000B5F660E087E598E00E94B5F660E089E4ED
:104B000098E00E94B5F660E083E398E00E94B5F675
:104B100060E082E298E00E94B5F660E083E198E010
:104B20000E94B5F660E08EEF97E00E94B5F661E076
:104B30008BEE97E00E94B5F660E08EED97E00E9464
:104B4000B5F660E08AEC97E00E94B5F6EBC580917F
:104B50009A1690919B16009709F413CBDC012C91C7
:104B6000222309F40ECB60E00E9439E0DBC5F80196
:104B70008081282F2B7F213499F08035E9F48181C1
:104B800080538A30C8F498012E5F3F4F89012F5F10
:104B90003F4FF80180818032C9F3915041F70CC03A
:104BA0002181213349F4813421F0853461F741E0DA
:104BB000EACFFF24F394E7CF41110F94781CFF2034
:104BC00021F08EEA99E00F94001CC8010E9419346C
:104BD000A9C50F94DA04A6C581E0809324048093CC
:104BE00023040F942A059EC51092240410922304D6
:104BF0000F942A0597C560E070E083E50E9406E8FF
:104C00008C011127023011053CF00F94741C82EBCB
:104C100099E00F94001C86C588E40E94F9E7882378
:104C2000A9F00E94ADE58A3A91053CF08530F1E0AB
:104C30009F072CF084E091E002C08AEA90E0F8013E
:104C4000EE0FFF1FE055F84E9183808386E40E94AB
:104C5000F9E7882381F00E94ADE597FD07C08F3FFB
:104C6000910529F024F08FEF90E001C080E0F80179
:104C7000E655F84E808382E40E94F9E7882309F420
:104C800051C50E94ADE58530910534F0843791051A
:104C90002CF083E790E002C085E090E0F801EE0F91
:104CA000FF1FE455F84E918380833CC50F94AF14E9
:104CB000182F87FD37C584E40E94E8E58823E9F1D1
:104CC0000E94B1E56B017C0101E020E030E0A90128
:104CD0000F94FA2A811101C000E00093690920E0D5
:104CE00030E0A901C701B6010F94FA2A882329F1FF
:104CF00024E01202F0011124E259F64FC082D18261
:104D0000E282F38220E030E0A90160916E097091A7
:104D10006F0980917009909171090F94FA2A81119D
:104D20000CC080E090E0A0EEBFE380936E0990930A
:104D30006F09A0937009B09371090E941E7FF2C49D
:104D40000F94AF1487FDEEC4F0E9EF2EF2E0FF2ED2
:104D500004EB1EE0D7018D917D010E94E8E58823D8
:104D600059F00E94B1E50F946333F80160837183B9
:104D7000828393830E94F7930C5F1F4FFEE0043CF5
:104D80001F0741F7CFC40F94AF1487FDCBC470E960
:104D9000E72E72E0F72E04EB1EE0E4ECCE2EEEE000
:104DA000DE2ED7018D917D010E94E8E5882339F040
:104DB0000E94B1E5F80164A375A386A397A30C5FD5
:104DC0001F4FC016D10669F7ADC48091A01687FDAC
:104DD00081C78091A1168E7009F07CC74091E80EC2
:104DE0005091E90E6091EA0E7091EB0E84ED99E01E
:104DF0000F94431C4091EC0E5091ED0E6091EE0E1D
:104E00007091EF0E80E19FE20F94431C4091F00EF1
:104E10005091F10E6091F20E7091F30E8FE690E3D7
:104E20000F94431C8AE00E940E337CC480919F162D
:104E300081FD96C78091A01681FD92C78091A11631
:104E40008C7009F08DC76EC467E2E62E64E0F62E22
:104E500010E088E5810F0E94E8E5882359F00E9460
:104E6000B1E5D7016D937D938D939C931397812F1B
:104E70000E949A841F5FB4E0EB0EF11C133049F7D7
:104E80000C94CF1C83E50E94F9E7882331F00E943F
:104E9000ADE5909338028093370280919F169091F0
:104EA000A016A091A116B091A216892B8A2B8B2B4C
:104EB00009F038C4609137027091380283E09AE0BB
:104EC0000F94541C85E20E940E338AE00E940E3338
:104ED00029C40F94AF14F82E87FD24C483E50E94E3
:104EE000F9E70F2D0F2C000C110B882369F10E949C
:104EF000ADE5F801EE0FFF1FE75CFD4F9183808366
:104F0000000F111F000F111FF801E55BFD4F7F011E
:104F1000BC01990F880B990B0F94012B2AE037EDF8
:104F200043E25CE30F94602BF801E659F64F2081D1
:104F30003181428153810F94602BD7016D937D9312
:104F40008D939C931397EEC30F94781C85E40E9475
:104F50000E3380E38F0D0E940E33F801EE0FFF1F1A
:104F6000E75CFD4F6081718187E09AE00F94541CEB
:104F700085E20E940E338AE00E940E33D3C380E59F
:104F80000E94E8E5882309F4CDC360E070E080E585
:104F90000E9406E8F82E6FEF7FEF83E50E9406E897
:104FA0008C010196039708F0BDC3F7FCBBC38F2D9E
:104FB0000F94081D882339F00F94741C8FE09AE039
:104FC0000F94001CAFC30E94837F60E08F2D0F946D
:104FD000D70F0F3FBFEF1B0731F00130110571F004
:104FE00000E010E00DC08F2D0F947F0F31E020E026
:104FF000892B09F030E0032F122F02C001E010E0EE
:105000008F2D0F947F0F8017910709F48BC380E0D9
:105010000E943A34F5CF80E50E94E8E5882309F440
:1050200081C30E94ADE58C01892B09F07FC083E527
:105030000E94E8E5882389F00E94ADE58F3FEFEFFD
:105040009E0729F48BE093E10E94C6306BC3BC013C
:105050008BE093E10E94963165C30F94781C60E069
:1050600070E08DE29AE00F94541C80910D1328E5B6
:1050700032E06901C81AD10887FDD394CC0CDD1C3D
:10508000CC0CDD1C0D2C000CEE08FF0880910C13DD
:1050900028E830E04901881A910887FD9394880C2C
:1050A000991C880C991C092C000CAA08BB0880913B
:1050B0000B138F3FC1F090E0FC01EE0FFF1F8E0F2E
:1050C0009F1FFC01E256FD4E2181328103E0220F39
:1050D000331F0A95E1F784E0369527958A95E1F725
:1050E0002E5F3F4F02C020E030E02F5F3F4FC901ED
:1050F000330FAA0BBB0B9C01AD01281939094A09D2
:105100005B09A4EBB0E00F949131A7019601281937
:1051100039094A095B090F947231B90181E697E2B6
:105120000F94541C8AE00E940E33FCC20F94741C2E
:10513000B8018EE29AE00F94541C8EE19AE00F942D
:10514000001CF0C28AE50E94F9E7811105C083E5E1
:105150000E94F9E78823E9F10E94B1E520E030E000
:1051600040E050EC0F94FA2A87FD58C60E94B1E542
:1051700020E030E040E050E40F94503418160CF476
:1051800048C60E94B1E520913A172695269520FF42
:1051900020C02091D00E3091D10E4091D20E50916E
:1051A000D30E0F94602B0F945C3320914209309101
:1051B0004309260F371F309343092093420920915A
:1051C0003A0F30913B0F620F731F70933B0F609348
:1051D0003A0F8091A11687FD26C68091A216837092
:1051E00009F021C60F94781C9DC264E071E083E54C
:1051F0000F940B178C0168EE73E080E50F940B178A
:105200008938F3E19F0710F088E893E1B8010E9424
:105210008DDF88C260E085E40E9415E8811173C0CB
:1052200080E50E94E8E5882351F00E94B1E5609393
:105230001E1270931F12809320129093211289E402
:105240000E94E8E5882381F00E94B1E52CEA35EC64
:1052500047E25EE30F94602B609322127093231257
:10526000809324129093251284E40E94E8E5882319
:1052700081F00E94B1E52CEA35EC47E25EE30F9441
:10528000EA3260932612709327128093281290932B
:1052900029120F94781C40911E1250911F12609198
:1052A0002012709121128FE49AE00F94431C2CEA93
:1052B00035EC47E25EE360912212709123128091F7
:1052C0002412909125120F94EA32AB01BC018BE4B9
:1052D0009AE00F94431C2CEA35EC47E25EE36091C0
:1052E00026127091271280912812909129120F9402
:1052F000602BAB01BC0187E49AE00F94431C8AE069
:105300000E940E330FC20F94741C85E39AE00F9431
:10531000001C08C283E40E94E8E5882321F00E9473
:10532000ADE50E944B4E609181027091820283E54F
:105330009AE00F94541C8AE00E940E33F3C183E577
:105340000E94E8E5182F882371F00E94B1E50F94C0
:105350005C337093500260934F0221E0672B09F099
:1053600020E02093000A80E50E94E8E5882359F0B8
:1053700020914F0230915002232B11F00E949DE5A5
:105380008093000ACFC11111CDC10F94781C8BE717
:105390009AE00F94001C8091000A882319F08DE197
:1053A0009AE202C082E69AE00F94001C60914F02DC
:1053B000709150028AE69AE00F94541C86E69AE0B7
:1053C0000F94001CAFC10E945C50ACC180913B1790
:1053D00081110C94CF1C81E00E94E1910C94CF1CB0
:1053E0000E94BFE30F946B049DC10E9431E69AC1F5
:1053F0006FEF7FEF89E40E9406E8182F6FEF7FEFD1
:105400008AE40E9406E8082F8AE50E94E8E5F82E63
:10541000811105C081E50E94E8E5D82E01C0D12C9C
:1054200017FD06C007FD04C0F11009C0D11007C068
:105430000F94741C8EE89AE00F94001C73C1143012
:1054400010F4043038F00F94741C8EE696E00F943C
:10545000001C68C1E12E110FFF08002E000C110B7B
:105460000E94B1E5EE0CFF1CEE0CFF1CDD2071F07C
:10547000F701E00FF11FEE0FFF1FEE0FFF1FEC54BF
:10548000F84E208131814281538103C020E030E019
:10549000A9010E0D1F1D000F111F000F111F0C542D
:1054A000184E0F94F031D8016D937D938D939C939A
:1054B00013970F94341936C10E9426FE811132C110
:1054C00000EA1BE1EDE5F2E0FDA3ECA39E012F5FF6
:1054D0003F4F190143EDC42E4BE1D42E7901F80161
:1054E0006591759185919491ACA1BDA18D909D9090
:1054F000AD90BD90BDA3ACA3A50194010F94EF3175
:105500002B013C01F701608371838283938320E048
:1055100030E040EA51EC0F94503487FD0AC020E09F
:1055200030E040EA51E4C301B2010F94FA2A1816A0
:105530002CF4F601849118160CF47BC4D7018D90DD
:105540009D90AD90BD907D0120E030E040EA51ECAF
:10555000C501B4010F94503487FDABC420E030E0A6
:1055600040EA51E4C501B4010F94FA2A18160CF070
:105570006BC49FC40E942F56D5C00F948706D2C01B
:105580000F944705CFC061E083E50E9421E891E0D8
:1055900089270F949506C6C081E080939D170E94CD
:1055A000C75A10929D17882309F4BCC00F94781C29
:1055B0008AEE9AE00F94001CB5C08091B01482FF6F
:1055C000B1C080648093B014ADC00F94D814AAC049
:1055D0000F94AF14082F87FDA5C085E50E94E8E56C
:1055E0008823B1F1E02E002E000CFF080E94B1E5E7
:1055F0004B015C0120E030E0A9010F94503487FF9B
:1056000004C0B7FAB094B7F8B094C70123E0880F8C
:10561000991F2A95E1F79C012E55384E7901D90141
:105620008D929D92AD92BC92139720E030E042EDB6
:1056300053E4C501B4010F94503418164CF480E0C3
:1056400090E0A2EDB3E4F70180839183A283B3835A
:105650008CE40E94E8E5882309F464C0002E000C65
:10566000110B0E94B1E56B017C0120E030E0A90143
:105670000F94503487FF04C0F7FAF094F7F8F094D1
:1056800020E030E042ED53E4C701B6010F945034FE
:10569000980193E0220F331F9A95E1F7F901EE5537
:1056A000F84E18162CF0C482D582E682F7823AC0F2
:1056B00080E090E0A2EDB3E484839583A683B78372
:1056C00031C00E94F2EE2EC081E080932604109239
:1056D000631660E083E50E9421E8811123C00E94E7
:1056E00013EE20C00E940CFE1DC000919C1610916C
:1056F0009D160023B9F00F94781C84E50E940E33A8
:10570000B8017727072E000C880B990B0E94823373
:1057100080E20E940E3385E39AE00F94001C02C0E1
:105720000E940CFEF8A9F11102C00E9403EE2DA503
:1057300020937E03D2C30E94837F309172093FA7DA
:1057400080E00E949B690E94728981E0809324041A
:105750000F942A0588E50E94E8E5182F89E50E9444
:10576000E8E5082F8AE50E94E8E51013F4C1181750
:1057700011F0012FF0C101E011E031E03CA780E120
:10578000EDE5F2E0A9E5B9E001900D928A95E1F727
:1057900082E50E94F9E7882369F00E94B1E56B0178
:1057A0007C0120E030E0A9010F94FA2A882309F453
:1057B0003FC006C0C12CD12C40EAE42E40E4F42EB8
:1057C000111103C0002309F40EC180913A1782FD24
:1057D00009C06091650270916602809167029091A4
:1057E000680203C060E070E0CB01A70196010F944E
:1057F000F03160936109709362098093630990931B
:1058000064092091650230916602409167025091CF
:1058100068020F94503418165CF419821A821B82A5
:105820001C82BE016F5F7F4F81E699E00E948F8AE4
:10583000112309F4D3C0002309F4CDC010925D02F6
:1058400010925E0210925F0210926002109261024A
:105850001092620210926302109264020F94690423
:10586000E3EDFBE1849189ABE7ECFBE1C590D590DA
:10587000E590F490EBECFBE185909590A590B490C9
:10588000A5019401C701B6010F94503418162CF4E9
:10589000A7019601C501B40104C0A5019401C70187
:1058A000B6010F94EA322B013C01E0EBFBE185915C
:1058B0009591A591B4918CA39DA3AEA3BFA3ECEA4F
:1058C000FBE185919591A591B49188A799A7AAA785
:1058D000BBA79C01AD016CA17DA18EA19FA10F94DE
:1058E0005034181634F428A439A49AA59EA71BA5F1
:1058F00005C02CA03DA0AEA1AEA71FA1A30192019F
:10590000C301B2010F94602B20E030E040E85FE378
:105910000F94F0310F949E3491014EA5512F0F94A6
:10592000602B68A379A38AA39BA3E4EDFBE1149108
:1059300020E030E040EC5FE3C501B4010F94602B40
:105940004B015C01612F110F770B880B990B0F94A2
:10595000012B9B01AC01C501B4010F94602B69833D
:105960007A838B839C8320E030E040EC5FE3C701C7
:10597000B6010F94602B6B017C01B9A96B2FBB0F93
:10598000770B880B990B0F94012B9B01AC01C7017E
:10599000B6010F94602B6C8F7D8F8E8F9F8FAE0121
:1059A000405E5F4FBE016F5F7F4FCE014C960E94FD
:1059B0006D8A0F94390510925D0210925E0210926A
:1059C0005F021092600210926102109262021092C5
:1059D00063021092640280E00E94BA84002319F0EE
:1059E00081E00E94BA84ECA5EE2309F4A3C080E014
:1059F0000E94576680913A178370833051F060E0BF
:105A000080E696E00E94BADF0F94781C81E596E06C
:105A1000ADC00F946904409065025090660260909A
:105A200067027090680220913C1730913D174091B9
:105A30003E1750913F1760E070E080EE92E40F94C3
:105A4000EF316B017C016093590970935A0980937F
:105A50005B0990935C092091401730914117409168
:105A600042175091431760E070E080EE92E40F948B
:105A7000EF314B015C0160935D0970935E09809387
:105A80005F09909360092091441730914517409128
:105A9000461750914717C301B2010F94EF3160933D
:105AA000610970936209809363099093640929E600
:105AB00030E040E351ECC501B4010F94503487FD50
:105AC0004CC027E030E041E653E4C501B4010F9437
:105AD000FA2A18160CF441C023EA31E040E050ECF9
